{
  "_format": "hh-sol-artifact-1",
  "contractName": "ERC20Mock",
  "sourceName": "contracts/mocks/ERC20Mock.sol",
  "abi": [
    {
      "inputs": [],
      "stateMutability": "nonpayable",
      "type": "constructor"
    },
    {
      "anonymous": false,
      "inputs": [
        {
          "indexed": true,
          "internalType": "address",
          "name": "owner",
          "type": "address"
        },
        {
          "indexed": true,
          "internalType": "address",
          "name": "spender",
          "type": "address"
        },
        {
          "indexed": false,
          "internalType": "uint256",
          "name": "value",
          "type": "uint256"
        }
      ],
      "name": "Approval",
      "type": "event"
    },
    {
      "anonymous": false,
      "inputs": [
        {
          "indexed": true,
          "internalType": "address",
          "name": "from",
          "type": "address"
        },
        {
          "indexed": true,
          "internalType": "address",
          "name": "to",
          "type": "address"
        },
        {
          "indexed": false,
          "internalType": "uint256",
          "name": "value",
          "type": "uint256"
        }
      ],
      "name": "Transfer",
      "type": "event"
    },
    {
      "inputs": [
        {
          "internalType": "address",
          "name": "owner",
          "type": "address"
        },
        {
          "internalType": "address",
          "name": "spender",
          "type": "address"
        }
      ],
      "name": "allowance",
      "outputs": [
        {
          "internalType": "uint256",
          "name": "",
          "type": "uint256"
        }
      ],
      "stateMutability": "view",
      "type": "function"
    },
    {
      "inputs": [
        {
          "internalType": "address",
          "name": "spender",
          "type": "address"
        },
        {
          "internalType": "uint256",
          "name": "amount",
          "type": "uint256"
        }
      ],
      "name": "approve",
      "outputs": [
        {
          "internalType": "bool",
          "name": "",
          "type": "bool"
        }
      ],
      "stateMutability": "nonpayable",
      "type": "function"
    },
    {
      "inputs": [
        {
          "internalType": "address",
          "name": "account",
          "type": "address"
        }
      ],
      "name": "balanceOf",
      "outputs": [
        {
          "internalType": "uint256",
          "name": "",
          "type": "uint256"
        }
      ],
      "stateMutability": "view",
      "type": "function"
    },
    {
      "inputs": [
        {
          "internalType": "uint256",
          "name": "amount",
          "type": "uint256"
        }
      ],
      "name": "burn",
      "outputs": [],
      "stateMutability": "nonpayable",
      "type": "function"
    },
    {
      "inputs": [],
      "name": "decimals",
      "outputs": [
        {
          "internalType": "uint8",
          "name": "",
          "type": "uint8"
        }
      ],
      "stateMutability": "view",
      "type": "function"
    },
    {
      "inputs": [
        {
          "internalType": "address",
          "name": "spender",
          "type": "address"
        },
        {
          "internalType": "uint256",
          "name": "subtractedValue",
          "type": "uint256"
        }
      ],
      "name": "decreaseAllowance",
      "outputs": [
        {
          "internalType": "bool",
          "name": "",
          "type": "bool"
        }
      ],
      "stateMutability": "nonpayable",
      "type": "function"
    },
    {
      "inputs": [
        {
          "internalType": "address",
          "name": "spender",
          "type": "address"
        },
        {
          "internalType": "uint256",
          "name": "addedValue",
          "type": "uint256"
        }
      ],
      "name": "increaseAllowance",
      "outputs": [
        {
          "internalType": "bool",
          "name": "",
          "type": "bool"
        }
      ],
      "stateMutability": "nonpayable",
      "type": "function"
    },
    {
      "inputs": [
        {
          "internalType": "address",
          "name": "to",
          "type": "address"
        },
        {
          "internalType": "uint256",
          "name": "amount",
          "type": "uint256"
        }
      ],
      "name": "mint",
      "outputs": [],
      "stateMutability": "nonpayable",
      "type": "function"
    },
    {
      "inputs": [],
      "name": "name",
      "outputs": [
        {
          "internalType": "string",
          "name": "",
          "type": "string"
        }
      ],
      "stateMutability": "view",
      "type": "function"
    },
    {
      "inputs": [],
      "name": "symbol",
      "outputs": [
        {
          "internalType": "string",
          "name": "",
          "type": "string"
        }
      ],
      "stateMutability": "view",
      "type": "function"
    },
    {
      "inputs": [],
      "name": "totalSupply",
      "outputs": [
        {
          "internalType": "uint256",
          "name": "",
          "type": "uint256"
        }
      ],
      "stateMutability": "view",
      "type": "function"
    },
    {
      "inputs": [
        {
          "internalType": "address",
          "name": "to",
          "type": "address"
        },
        {
          "internalType": "uint256",
          "name": "amount",
          "type": "uint256"
        }
      ],
      "name": "transfer",
      "outputs": [
        {
          "internalType": "bool",
          "name": "",
          "type": "bool"
        }
      ],
      "stateMutability": "nonpayable",
      "type": "function"
    },
    {
      "inputs": [
        {
          "internalType": "address",
          "name": "from",
          "type": "address"
        },
        {
          "internalType": "address",
          "name": "to",
          "type": "address"
        },
        {
          "internalType": "uint256",
          "name": "amount",
          "type": "uint256"
        }
      ],
      "name": "transferFrom",
      "outputs": [
        {
          "internalType": "bool",
          "name": "",
          "type": "bool"
        }
      ],
      "stateMutability": "nonpayable",
      "type": "function"
    }
  ],
  "bytecode": "0x60806040523480156200001157600080fd5b506040518060400160405280600981526020017f6d6f636b455243323000000000000000000000000000000000000000000000008152506040518060400160405280600581526020017f45524332300000000000000000000000000000000000000000000000000000008152508160039080519060200190620000969291906200024c565b508060049080519060200190620000af9291906200024c565b505050620000ce3369d3c21bcecceda1000000620000d460201b60201c565b620004a8565b600073ffffffffffffffffffffffffffffffffffffffff168273ffffffffffffffffffffffffffffffffffffffff16141562000147576040517f08c379a00000000000000000000000000000000000000000000000000000000081526004016200013e906200035d565b60405180910390fd5b6200015b600083836200024260201b60201c565b80600260008282546200016f9190620003b8565b92505081905550806000808473ffffffffffffffffffffffffffffffffffffffff1673ffffffffffffffffffffffffffffffffffffffff168152602001908152602001600020600082825401925050819055508173ffffffffffffffffffffffffffffffffffffffff16600073ffffffffffffffffffffffffffffffffffffffff167fddf252ad1be2c89b69c2b068fc378daa952ba7f163c4a11628f55a4df523b3ef8360405162000222919062000426565b60405180910390a36200023e600083836200024760201b60201c565b5050565b505050565b505050565b8280546200025a9062000472565b90600052602060002090601f0160209004810192826200027e5760008555620002ca565b82601f106200029957805160ff1916838001178555620002ca565b82800160010185558215620002ca579182015b82811115620002c9578251825591602001919060010190620002ac565b5b509050620002d99190620002dd565b5090565b5b80821115620002f8576000816000905550600101620002de565b5090565b600082825260208201905092915050565b7f45524332303a206d696e7420746f20746865207a65726f206164647265737300600082015250565b600062000345601f83620002fc565b915062000352826200030d565b602082019050919050565b60006020820190508181036000830152620003788162000336565b9050919050565b6000819050919050565b7f4e487b7100000000000000000000000000000000000000000000000000000000600052601160045260246000fd5b6000620003c5826200037f565b9150620003d2836200037f565b9250827fffffffffffffffffffffffffffffffffffffffffffffffffffffffffffffffff038211156200040a576200040962000389565b5b828201905092915050565b62000420816200037f565b82525050565b60006020820190506200043d600083018462000415565b92915050565b7f4e487b7100000000000000000000000000000000000000000000000000000000600052602260045260246000fd5b600060028204905060018216806200048b57607f821691505b60208210811415620004a257620004a162000443565b5b50919050565b6117ba80620004b86000396000f3fe608060405234801561001057600080fd5b50600436106100cf5760003560e01c806340c10f191161008c57806395d89b411161006657806395d89b4114610226578063a457c2d714610244578063a9059cbb14610274578063dd62ed3e146102a4576100cf565b806340c10f19146101be57806342966c68146101da57806370a08231146101f6576100cf565b806306fdde03146100d4578063095ea7b3146100f257806318160ddd1461012257806323b872dd14610140578063313ce56714610170578063395093511461018e575b600080fd5b6100dc6102d4565b6040516100e99190610eb7565b60405180910390f35b61010c60048036038101906101079190610f72565b610366565b6040516101199190610fcd565b60405180910390f35b61012a610389565b6040516101379190610ff7565b60405180910390f35b61015a60048036038101906101559190611012565b610393565b6040516101679190610fcd565b60405180910390f35b6101786103c2565b6040516101859190611081565b60405180910390f35b6101a860048036038101906101a39190610f72565b6103cb565b6040516101b59190610fcd565b60405180910390f35b6101d860048036038101906101d39190610f72565b610402565b005b6101f460048036038101906101ef919061109c565b610410565b005b610210600480360381019061020b91906110c9565b61041d565b60405161021d9190610ff7565b60405180910390f35b61022e610465565b60405161023b9190610eb7565b60405180910390f35b61025e60048036038101906102599190610f72565b6104f7565b60405161026b9190610fcd565b60405180910390f35b61028e60048036038101906102899190610f72565b61056e565b60405161029b9190610fcd565b60405180910390f35b6102be60048036038101906102b991906110f6565b610591565b6040516102cb9190610ff7565b60405180910390f35b6060600380546102e390611165565b80601f016020809104026020016040519081016040528092919081815260200182805461030f90611165565b801561035c5780601f106103315761010080835404028352916020019161035c565b820191906000526020600020905b81548152906001019060200180831161033f57829003601f168201915b5050505050905090565b600080610371610618565b905061037e818585610620565b600191505092915050565b6000600254905090565b60008061039e610618565b90506103ab8582856107eb565b6103b6858585610877565b60019150509392505050565b60006012905090565b6000806103d6610618565b90506103f78185856103e88589610591565b6103f291906111c6565b610620565b600191505092915050565b61040c8282610aef565b5050565b61041a3082610c46565b50565b60008060008373ffffffffffffffffffffffffffffffffffffffff1673ffffffffffffffffffffffffffffffffffffffff168152602001908152602001600020549050919050565b60606004805461047490611165565b80601f01602080910402602001604051908101604052809291908181526020018280546104a090611165565b80156104ed5780601f106104c2576101008083540402835291602001916104ed565b820191906000526020600020905b8154815290600101906020018083116104d057829003601f168201915b5050505050905090565b600080610502610618565b905060006105108286610591565b905083811015610555576040517f08c379a000000000000000000000000000000000000000000000000000000000815260040161054c9061128e565b60405180910390fd5b6105628286868403610620565b60019250505092915050565b600080610579610618565b9050610586818585610877565b600191505092915050565b6000600160008473ffffffffffffffffffffffffffffffffffffffff1673ffffffffffffffffffffffffffffffffffffffff16815260200190815260200160002060008373ffffffffffffffffffffffffffffffffffffffff1673ffffffffffffffffffffffffffffffffffffffff16815260200190815260200160002054905092915050565b600033905090565b600073ffffffffffffffffffffffffffffffffffffffff168373ffffffffffffffffffffffffffffffffffffffff161415610690576040517f08c379a000000000000000000000000000000000000000000000000000000000815260040161068790611320565b60405180910390fd5b600073ffffffffffffffffffffffffffffffffffffffff168273ffffffffffffffffffffffffffffffffffffffff161415610700576040517f08c379a00000000000000000000000000000000000000000000000000000000081526004016106f7906113b2565b60405180910390fd5b80600160008573ffffffffffffffffffffffffffffffffffffffff1673ffffffffffffffffffffffffffffffffffffffff16815260200190815260200160002060008473ffffffffffffffffffffffffffffffffffffffff1673ffffffffffffffffffffffffffffffffffffffff168152602001908152602001600020819055508173ffffffffffffffffffffffffffffffffffffffff168373ffffffffffffffffffffffffffffffffffffffff167f8c5be1e5ebec7d5bd14f71427d1e84f3dd0314c0f7b2291e5b200ac8c7c3b925836040516107de9190610ff7565b60405180910390a3505050565b60006107f78484610591565b90507fffffffffffffffffffffffffffffffffffffffffffffffffffffffffffffffff81146108715781811015610863576040517f08c379a000000000000000000000000000000000000000000000000000000000815260040161085a9061141e565b60405180910390fd5b6108708484848403610620565b5b50505050565b600073ffffffffffffffffffffffffffffffffffffffff168373ffffffffffffffffffffffffffffffffffffffff1614156108e7576040517f08c379a00000000000000000000000000000000000000000000000000000000081526004016108de906114b0565b60405180910390fd5b600073ffffffffffffffffffffffffffffffffffffffff168273ffffffffffffffffffffffffffffffffffffffff161415610957576040517f08c379a000000000000000000000000000000000000000000000000000000000815260040161094e90611542565b60405180910390fd5b610962838383610e14565b60008060008573ffffffffffffffffffffffffffffffffffffffff1673ffffffffffffffffffffffffffffffffffffffff168152602001908152602001600020549050818110156109e8576040517f08c379a00000000000000000000000000000000000000000000000000000000081526004016109df906115d4565b60405180910390fd5b8181036000808673ffffffffffffffffffffffffffffffffffffffff1673ffffffffffffffffffffffffffffffffffffffff16815260200190815260200160002081905550816000808573ffffffffffffffffffffffffffffffffffffffff1673ffffffffffffffffffffffffffffffffffffffff168152602001908152602001600020600082825401925050819055508273ffffffffffffffffffffffffffffffffffffffff168473ffffffffffffffffffffffffffffffffffffffff167fddf252ad1be2c89b69c2b068fc378daa952ba7f163c4a11628f55a4df523b3ef84604051610ad69190610ff7565b60405180910390a3610ae9848484610e19565b50505050565b600073ffffffffffffffffffffffffffffffffffffffff168273ffffffffffffffffffffffffffffffffffffffff161415610b5f576040517f08c379a0000000000000000000000000000000000000000000000000000000008152600401610b5690611640565b60405180910390fd5b610b6b60008383610e14565b8060026000828254610b7d91906111c6565b92505081905550806000808473ffffffffffffffffffffffffffffffffffffffff1673ffffffffffffffffffffffffffffffffffffffff168152602001908152602001600020600082825401925050819055508173ffffffffffffffffffffffffffffffffffffffff16600073ffffffffffffffffffffffffffffffffffffffff167fddf252ad1be2c89b69c2b068fc378daa952ba7f163c4a11628f55a4df523b3ef83604051610c2e9190610ff7565b60405180910390a3610c4260008383610e19565b5050565b600073ffffffffffffffffffffffffffffffffffffffff168273ffffffffffffffffffffffffffffffffffffffff161415610cb6576040517f08c379a0000000000000000000000000000000000000000000000000000000008152600401610cad906116d2565b60405180910390fd5b610cc282600083610e14565b60008060008473ffffffffffffffffffffffffffffffffffffffff1673ffffffffffffffffffffffffffffffffffffffff16815260200190815260200160002054905081811015610d48576040517f08c379a0000000000000000000000000000000000000000000000000000000008152600401610d3f90611764565b60405180910390fd5b8181036000808573ffffffffffffffffffffffffffffffffffffffff1673ffffffffffffffffffffffffffffffffffffffff1681526020019081526020016000208190555081600260008282540392505081905550600073ffffffffffffffffffffffffffffffffffffffff168373ffffffffffffffffffffffffffffffffffffffff167fddf252ad1be2c89b69c2b068fc378daa952ba7f163c4a11628f55a4df523b3ef84604051610dfb9190610ff7565b60405180910390a3610e0f83600084610e19565b505050565b505050565b505050565b600081519050919050565b600082825260208201905092915050565b60005b83811015610e58578082015181840152602081019050610e3d565b83811115610e67576000848401525b50505050565b6000601f19601f8301169050919050565b6000610e8982610e1e565b610e938185610e29565b9350610ea3818560208601610e3a565b610eac81610e6d565b840191505092915050565b60006020820190508181036000830152610ed18184610e7e565b905092915050565b600080fd5b600073ffffffffffffffffffffffffffffffffffffffff82169050919050565b6000610f0982610ede565b9050919050565b610f1981610efe565b8114610f2457600080fd5b50565b600081359050610f3681610f10565b92915050565b6000819050919050565b610f4f81610f3c565b8114610f5a57600080fd5b50565b600081359050610f6c81610f46565b92915050565b60008060408385031215610f8957610f88610ed9565b5b6000610f9785828601610f27565b9250506020610fa885828601610f5d565b9150509250929050565b60008115159050919050565b610fc781610fb2565b82525050565b6000602082019050610fe26000830184610fbe565b92915050565b610ff181610f3c565b82525050565b600060208201905061100c6000830184610fe8565b92915050565b60008060006060848603121561102b5761102a610ed9565b5b600061103986828701610f27565b935050602061104a86828701610f27565b925050604061105b86828701610f5d565b9150509250925092565b600060ff82169050919050565b61107b81611065565b82525050565b60006020820190506110966000830184611072565b92915050565b6000602082840312156110b2576110b1610ed9565b5b60006110c084828501610f5d565b91505092915050565b6000602082840312156110df576110de610ed9565b5b60006110ed84828501610f27565b91505092915050565b6000806040838503121561110d5761110c610ed9565b5b600061111b85828601610f27565b925050602061112c85828601610f27565b9150509250929050565b7f4e487b7100000000000000000000000000000000000000000000000000000000600052602260045260246000fd5b6000600282049050600182168061117d57607f821691505b6020821081141561119157611190611136565b5b50919050565b7f4e487b7100000000000000000000000000000000000000000000000000000000600052601160045260246000fd5b60006111d182610f3c565b91506111dc83610f3c565b9250827fffffffffffffffffffffffffffffffffffffffffffffffffffffffffffffffff0382111561121157611210611197565b5b828201905092915050565b7f45524332303a2064656372656173656420616c6c6f77616e63652062656c6f7760008201527f207a65726f000000000000000000000000000000000000000000000000000000602082015250565b6000611278602583610e29565b91506112838261121c565b604082019050919050565b600060208201905081810360008301526112a78161126b565b9050919050565b7f45524332303a20617070726f76652066726f6d20746865207a65726f2061646460008201527f7265737300000000000000000000000000000000000000000000000000000000602082015250565b600061130a602483610e29565b9150611315826112ae565b604082019050919050565b60006020820190508181036000830152611339816112fd565b9050919050565b7f45524332303a20617070726f766520746f20746865207a65726f20616464726560008201527f7373000000000000000000000000000000000000000000000000000000000000602082015250565b600061139c602283610e29565b91506113a782611340565b604082019050919050565b600060208201905081810360008301526113cb8161138f565b9050919050565b7f45524332303a20696e73756666696369656e7420616c6c6f77616e6365000000600082015250565b6000611408601d83610e29565b9150611413826113d2565b602082019050919050565b60006020820190508181036000830152611437816113fb565b9050919050565b7f45524332303a207472616e736665722066726f6d20746865207a65726f20616460008201527f6472657373000000000000000000000000000000000000000000000000000000602082015250565b600061149a602583610e29565b91506114a58261143e565b604082019050919050565b600060208201905081810360008301526114c98161148d565b9050919050565b7f45524332303a207472616e7366657220746f20746865207a65726f206164647260008201527f6573730000000000000000000000000000000000000000000000000000000000602082015250565b600061152c602383610e29565b9150611537826114d0565b604082019050919050565b6000602082019050818103600083015261155b8161151f565b9050919050565b7f45524332303a207472616e7366657220616d6f756e742065786365656473206260008201527f616c616e63650000000000000000000000000000000000000000000000000000602082015250565b60006115be602683610e29565b91506115c982611562565b604082019050919050565b600060208201905081810360008301526115ed816115b1565b9050919050565b7f45524332303a206d696e7420746f20746865207a65726f206164647265737300600082015250565b600061162a601f83610e29565b9150611635826115f4565b602082019050919050565b600060208201905081810360008301526116598161161d565b9050919050565b7f45524332303a206275726e2066726f6d20746865207a65726f2061646472657360008201527f7300000000000000000000000000000000000000000000000000000000000000602082015250565b60006116bc602183610e29565b91506116c782611660565b604082019050919050565b600060208201905081810360008301526116eb816116af565b9050919050565b7f45524332303a206275726e20616d6f756e7420657863656564732062616c616e60008201527f6365000000000000000000000000000000000000000000000000000000000000602082015250565b600061174e602283610e29565b9150611759826116f2565b604082019050919050565b6000602082019050818103600083015261177d81611741565b905091905056fea26469706673582212203e01684ab1f02e5436b751ca1e9df65f3cff8a74ac7278e5c1d4b26ef605013764736f6c634300080a0033",
  "linkReferences": {},
  "deployedLinkReferences": {}
}