{
  "_format": "hh-sol-artifact-1",
  "contractName": "AARTMarket",
  "sourceName": "contracts/AARTMarket.sol",
  "abi": [
    {
      "inputs": [
        {
          "internalType": "address",
          "name": "_nftAddress",
          "type": "address"
        }
      ],
      "stateMutability": "nonpayable",
      "type": "constructor"
    },
    {
      "inputs": [],
      "name": "AARTMarket_AddressZero",
      "type": "error"
    },
    {
      "inputs": [
        {
          "internalType": "uint256",
          "name": "auctionId",
          "type": "uint256"
        }
      ],
      "name": "AARTMarket_AlreadyHighestBid",
      "type": "error"
    },
    {
      "inputs": [
        {
          "internalType": "address",
          "name": "token",
          "type": "address"
        }
      ],
      "name": "AARTMarket_AlreadySupported",
      "type": "error"
    },
    {
      "inputs": [
        {
          "internalType": "uint256",
          "name": "auctionId",
          "type": "uint256"
        }
      ],
      "name": "AARTMarket_AuctionNotOpen",
      "type": "error"
    },
    {
      "inputs": [
        {
          "internalType": "uint256",
          "name": "auctionId",
          "type": "uint256"
        },
        {
          "internalType": "uint256",
          "name": "endTime",
          "type": "uint256"
        }
      ],
      "name": "AARTMarket_AuctionPeriodNotEnded",
      "type": "error"
    },
    {
      "inputs": [
        {
          "internalType": "uint256",
          "name": "auctionId",
          "type": "uint256"
        }
      ],
      "name": "AARTMarket_CancelImpossible",
      "type": "error"
    },
    {
      "inputs": [
        {
          "internalType": "uint256",
          "name": "auctionId",
          "type": "uint256"
        }
      ],
      "name": "AARTMarket_HasNoBid",
      "type": "error"
    },
    {
      "inputs": [],
      "name": "AARTMarket_InsufficientAmount",
      "type": "error"
    },
    {
      "inputs": [
        {
          "internalType": "uint256",
          "name": "auctionId",
          "type": "uint256"
        }
      ],
      "name": "AARTMarket_InsufficientBid",
      "type": "error"
    },
    {
      "inputs": [
        {
          "internalType": "uint256",
          "name": "endTime",
          "type": "uint256"
        },
        {
          "internalType": "uint256",
          "name": "startTime",
          "type": "uint256"
        }
      ],
      "name": "AARTMarket_InvalidAuctionPeriod",
      "type": "error"
    },
    {
      "inputs": [
        {
          "internalType": "uint256",
          "name": "directBuyPrice",
          "type": "uint256"
        }
      ],
      "name": "AARTMarket_InvalidDirectBuyPrice",
      "type": "error"
    },
    {
      "inputs": [],
      "name": "AARTMarket_InvalidExpirationTime",
      "type": "error"
    },
    {
      "inputs": [
        {
          "internalType": "uint256",
          "name": "fee",
          "type": "uint256"
        }
      ],
      "name": "AARTMarket_InvalidFee",
      "type": "error"
    },
    {
      "inputs": [],
      "name": "AARTMarket_InvalidStartPrice",
      "type": "error"
    },
    {
      "inputs": [
        {
          "internalType": "uint256",
          "name": "startTime",
          "type": "uint256"
        }
      ],
      "name": "AARTMarket_InvalidStartTime",
      "type": "error"
    },
    {
      "inputs": [
        {
          "internalType": "uint256",
          "name": "auctionId",
          "type": "uint256"
        }
      ],
      "name": "AARTMarket_IsHighestBidder",
      "type": "error"
    },
    {
      "inputs": [
        {
          "internalType": "uint256",
          "name": "tokenId",
          "type": "uint256"
        }
      ],
      "name": "AARTMarket_ItemNotApproved",
      "type": "error"
    },
    {
      "inputs": [
        {
          "internalType": "uint256",
          "name": "listingId",
          "type": "uint256"
        }
      ],
      "name": "AARTMarket_ListingNotActive",
      "type": "error"
    },
    {
      "inputs": [],
      "name": "AARTMarket_OfferAmountNotApproved",
      "type": "error"
    },
    {
      "inputs": [
        {
          "internalType": "uint256",
          "name": "offerId",
          "type": "uint256"
        },
        {
          "internalType": "uint256",
          "name": "tokenId",
          "type": "uint256"
        }
      ],
      "name": "AARTMarket_OfferNotActive",
      "type": "error"
    },
    {
      "inputs": [
        {
          "internalType": "uint256",
          "name": "offerId",
          "type": "uint256"
        },
        {
          "internalType": "uint256",
          "name": "tokenId",
          "type": "uint256"
        }
      ],
      "name": "AARTMarket_OnlyOfferer",
      "type": "error"
    },
    {
      "inputs": [
        {
          "internalType": "uint256",
          "name": "id",
          "type": "uint256"
        }
      ],
      "name": "AARTMarket_OnlySeller",
      "type": "error"
    },
    {
      "inputs": [
        {
          "internalType": "uint256",
          "name": "tokenId",
          "type": "uint256"
        }
      ],
      "name": "AARTMarket_OnlyTokenOwner",
      "type": "error"
    },
    {
      "inputs": [],
      "name": "AARTMarket_TransferFailed",
      "type": "error"
    },
    {
      "inputs": [
        {
          "internalType": "address",
          "name": "token",
          "type": "address"
        }
      ],
      "name": "AARTMarket_UnsupportedToken",
      "type": "error"
    },
    {
      "anonymous": false,
      "inputs": [
        {
          "indexed": false,
          "internalType": "uint256",
          "name": "auctionId",
          "type": "uint256"
        }
      ],
      "name": "AuctionCanceled",
      "type": "event"
    },
    {
      "anonymous": false,
      "inputs": [
        {
          "indexed": false,
          "internalType": "uint256",
          "name": "auctionId",
          "type": "uint256"
        },
        {
          "indexed": false,
          "internalType": "address",
          "name": "buyer",
          "type": "address"
        }
      ],
      "name": "AuctionDirectBuy",
      "type": "event"
    },
    {
      "anonymous": false,
      "inputs": [
        {
          "indexed": false,
          "internalType": "uint256",
          "name": "auctionId",
          "type": "uint256"
        },
        {
          "indexed": false,
          "internalType": "address",
          "name": "buyer",
          "type": "address"
        }
      ],
      "name": "AuctionEnded",
      "type": "event"
    },
    {
      "anonymous": false,
      "inputs": [
        {
          "indexed": false,
          "internalType": "uint256",
          "name": "auctionId",
          "type": "uint256"
        },
        {
          "indexed": false,
          "internalType": "address",
          "name": "seller",
          "type": "address"
        },
        {
          "indexed": false,
          "internalType": "uint256",
          "name": "tokenId",
          "type": "uint256"
        },
        {
          "indexed": false,
          "internalType": "uint256",
          "name": "startTime",
          "type": "uint256"
        }
      ],
      "name": "AuctionStarted",
      "type": "event"
    },
    {
      "anonymous": false,
      "inputs": [
        {
          "indexed": false,
          "internalType": "uint256",
          "name": "listingId",
          "type": "uint256"
        }
      ],
      "name": "ItemCanceled",
      "type": "event"
    },
    {
      "anonymous": false,
      "inputs": [
        {
          "indexed": false,
          "internalType": "uint256",
          "name": "listingId",
          "type": "uint256"
        },
        {
          "indexed": false,
          "internalType": "address",
          "name": "seller",
          "type": "address"
        },
        {
          "indexed": false,
          "internalType": "uint256",
          "name": "tokenId",
          "type": "uint256"
        }
      ],
      "name": "ItemListed",
      "type": "event"
    },
    {
      "anonymous": false,
      "inputs": [
        {
          "indexed": false,
          "internalType": "uint256",
          "name": "listingId",
          "type": "uint256"
        },
        {
          "indexed": false,
          "internalType": "address",
          "name": "buyer",
          "type": "address"
        }
      ],
      "name": "ItemSold",
      "type": "event"
    },
    {
      "anonymous": false,
      "inputs": [
        {
          "indexed": false,
          "internalType": "uint256",
          "name": "auctionId",
          "type": "uint256"
        },
        {
          "indexed": false,
          "internalType": "address",
          "name": "bidder",
          "type": "address"
        },
        {
          "indexed": false,
          "internalType": "uint256",
          "name": "bidAmount",
          "type": "uint256"
        }
      ],
      "name": "NewBid",
      "type": "event"
    },
    {
      "anonymous": false,
      "inputs": [
        {
          "indexed": false,
          "internalType": "uint256",
          "name": "fee",
          "type": "uint256"
        }
      ],
      "name": "NewFee",
      "type": "event"
    },
    {
      "anonymous": false,
      "inputs": [
        {
          "indexed": false,
          "internalType": "uint256",
          "name": "offerId",
          "type": "uint256"
        },
        {
          "indexed": false,
          "internalType": "uint256",
          "name": "tokenId",
          "type": "uint256"
        },
        {
          "indexed": false,
          "internalType": "address",
          "name": "offerer",
          "type": "address"
        }
      ],
      "name": "NewOffer",
      "type": "event"
    },
    {
      "anonymous": false,
      "inputs": [
        {
          "indexed": false,
          "internalType": "address",
          "name": "token",
          "type": "address"
        }
      ],
      "name": "NewSupportedToken",
      "type": "event"
    },
    {
      "anonymous": false,
      "inputs": [
        {
          "indexed": false,
          "internalType": "uint256",
          "name": "offerId",
          "type": "uint256"
        },
        {
          "indexed": false,
          "internalType": "uint256",
          "name": "tokenId",
          "type": "uint256"
        },
        {
          "indexed": false,
          "internalType": "address",
          "name": "owner",
          "type": "address"
        }
      ],
      "name": "OfferAccepted",
      "type": "event"
    },
    {
      "anonymous": false,
      "inputs": [
        {
          "indexed": false,
          "internalType": "uint256",
          "name": "offerId",
          "type": "uint256"
        },
        {
          "indexed": false,
          "internalType": "uint256",
          "name": "tokenId",
          "type": "uint256"
        }
      ],
      "name": "OfferCanceled",
      "type": "event"
    },
    {
      "anonymous": false,
      "inputs": [
        {
          "indexed": true,
          "internalType": "address",
          "name": "previousOwner",
          "type": "address"
        },
        {
          "indexed": true,
          "internalType": "address",
          "name": "newOwner",
          "type": "address"
        }
      ],
      "name": "OwnershipTransferred",
      "type": "event"
    },
    {
      "anonymous": false,
      "inputs": [
        {
          "indexed": false,
          "internalType": "uint256",
          "name": "tokenId",
          "type": "uint256"
        },
        {
          "indexed": false,
          "internalType": "address",
          "name": "receiver",
          "type": "address"
        },
        {
          "indexed": false,
          "internalType": "uint256",
          "name": "amount",
          "type": "uint256"
        }
      ],
      "name": "RoyaltyPaid",
      "type": "event"
    },
    {
      "inputs": [
        {
          "internalType": "uint256",
          "name": "_tokenId",
          "type": "uint256"
        },
        {
          "internalType": "uint256",
          "name": "_offerId",
          "type": "uint256"
        }
      ],
      "name": "acceptOffer",
      "outputs": [],
      "stateMutability": "nonpayable",
      "type": "function"
    },
    {
      "inputs": [
        {
          "internalType": "address",
          "name": "_token",
          "type": "address"
        }
      ],
      "name": "addSupportedToken",
      "outputs": [],
      "stateMutability": "nonpayable",
      "type": "function"
    },
    {
      "inputs": [
        {
          "internalType": "uint256",
          "name": "_auctionId",
          "type": "uint256"
        },
        {
          "internalType": "uint256",
          "name": "_amount",
          "type": "uint256"
        }
      ],
      "name": "bid",
      "outputs": [],
      "stateMutability": "payable",
      "type": "function"
    },
    {
      "inputs": [
        {
          "internalType": "uint256",
          "name": "_listingId",
          "type": "uint256"
        }
      ],
      "name": "buyItem",
      "outputs": [],
      "stateMutability": "payable",
      "type": "function"
    },
    {
      "inputs": [
        {
          "internalType": "uint256",
          "name": "_auctionId",
          "type": "uint256"
        }
      ],
      "name": "cancelAuction",
      "outputs": [],
      "stateMutability": "nonpayable",
      "type": "function"
    },
    {
      "inputs": [
        {
          "internalType": "uint256",
          "name": "_listingId",
          "type": "uint256"
        }
      ],
      "name": "cancelListing",
      "outputs": [],
      "stateMutability": "nonpayable",
      "type": "function"
    },
    {
      "inputs": [
        {
          "internalType": "uint256",
          "name": "_tokenId",
          "type": "uint256"
        },
        {
          "internalType": "uint256",
          "name": "_offerId",
          "type": "uint256"
        }
      ],
      "name": "cancelOffer",
      "outputs": [],
      "stateMutability": "nonpayable",
      "type": "function"
    },
    {
      "inputs": [
        {
          "internalType": "uint256",
          "name": "_auctionId",
          "type": "uint256"
        }
      ],
      "name": "directBuyAuction",
      "outputs": [],
      "stateMutability": "payable",
      "type": "function"
    },
    {
      "inputs": [
        {
          "internalType": "uint256",
          "name": "_auctionId",
          "type": "uint256"
        }
      ],
      "name": "endAuction",
      "outputs": [],
      "stateMutability": "nonpayable",
      "type": "function"
    },
    {
      "inputs": [],
      "name": "fee",
      "outputs": [
        {
          "internalType": "uint256",
          "name": "",
          "type": "uint256"
        }
      ],
      "stateMutability": "view",
      "type": "function"
    },
    {
      "inputs": [],
      "name": "getAuctions",
      "outputs": [
        {
          "components": [
            {
              "internalType": "uint256",
              "name": "tokenId",
              "type": "uint256"
            },
            {
              "internalType": "address",
              "name": "seller",
              "type": "address"
            },
            {
              "internalType": "address",
              "name": "paymentToken",
              "type": "address"
            },
            {
              "internalType": "address",
              "name": "highestBidder",
              "type": "address"
            },
            {
              "internalType": "uint256",
              "name": "highestBid",
              "type": "uint256"
            },
            {
              "internalType": "uint256",
              "name": "directBuyPrice",
              "type": "uint256"
            },
            {
              "internalType": "uint256",
              "name": "startPrice",
              "type": "uint256"
            },
            {
              "internalType": "uint128",
              "name": "startTime",
              "type": "uint128"
            },
            {
              "internalType": "uint128",
              "name": "endTime",
              "type": "uint128"
            },
            {
              "internalType": "enum IAARTMarket.AuctionStatus",
              "name": "status",
              "type": "uint8"
            }
          ],
          "internalType": "struct IAARTMarket.Auction[]",
          "name": "",
          "type": "tuple[]"
        }
      ],
      "stateMutability": "view",
      "type": "function"
    },
    {
      "inputs": [],
      "name": "getListings",
      "outputs": [
        {
          "components": [
            {
              "internalType": "uint256",
              "name": "tokenId",
              "type": "uint256"
            },
            {
              "internalType": "address",
              "name": "seller",
              "type": "address"
            },
            {
              "internalType": "address",
              "name": "paymentToken",
              "type": "address"
            },
            {
              "internalType": "uint256",
              "name": "buyPrice",
              "type": "uint256"
            },
            {
              "internalType": "enum IAARTMarket.ListingStatus",
              "name": "status",
              "type": "uint8"
            }
          ],
          "internalType": "struct IAARTMarket.Listing[]",
          "name": "",
          "type": "tuple[]"
        }
      ],
      "stateMutability": "view",
      "type": "function"
    },
    {
      "inputs": [
        {
          "internalType": "uint256",
          "name": "tokenId",
          "type": "uint256"
        }
      ],
      "name": "getTokenBuyOffers",
      "outputs": [
        {
          "components": [
            {
              "internalType": "address",
              "name": "offerer",
              "type": "address"
            },
            {
              "internalType": "address",
              "name": "paymentToken",
              "type": "address"
            },
            {
              "internalType": "uint256",
              "name": "price",
              "type": "uint256"
            },
            {
              "internalType": "uint256",
              "name": "expireTime",
              "type": "uint256"
            },
            {
              "internalType": "enum IAARTMarket.OfferStatus",
              "name": "status",
              "type": "uint8"
            }
          ],
          "internalType": "struct IAARTMarket.Offer[]",
          "name": "",
          "type": "tuple[]"
        }
      ],
      "stateMutability": "view",
      "type": "function"
    },
    {
      "inputs": [
        {
          "internalType": "uint256",
          "name": "auctionId",
          "type": "uint256"
        },
        {
          "internalType": "address",
          "name": "account",
          "type": "address"
        }
      ],
      "name": "getUserBidAmount",
      "outputs": [
        {
          "internalType": "uint256",
          "name": "",
          "type": "uint256"
        }
      ],
      "stateMutability": "view",
      "type": "function"
    },
    {
      "inputs": [
        {
          "internalType": "uint256",
          "name": "_tokenId",
          "type": "uint256"
        },
        {
          "internalType": "address",
          "name": "_paymentToken",
          "type": "address"
        },
        {
          "internalType": "uint256",
          "name": "_buyPrice",
          "type": "uint256"
        }
      ],
      "name": "listItem",
      "outputs": [
        {
          "internalType": "uint256",
          "name": "listingId",
          "type": "uint256"
        }
      ],
      "stateMutability": "nonpayable",
      "type": "function"
    },
    {
      "inputs": [
        {
          "internalType": "uint256",
          "name": "_tokenId",
          "type": "uint256"
        },
        {
          "internalType": "address",
          "name": "_paymentToken",
          "type": "address"
        },
        {
          "internalType": "uint256",
          "name": "_offerPrice",
          "type": "uint256"
        },
        {
          "internalType": "uint256",
          "name": "_expirationTime",
          "type": "uint256"
        }
      ],
      "name": "makeOffer",
      "outputs": [
        {
          "internalType": "uint256",
          "name": "offerId",
          "type": "uint256"
        }
      ],
      "stateMutability": "payable",
      "type": "function"
    },
    {
      "inputs": [
        {
          "internalType": "address",
          "name": "",
          "type": "address"
        },
        {
          "internalType": "address",
          "name": "",
          "type": "address"
        },
        {
          "internalType": "uint256",
          "name": "",
          "type": "uint256"
        },
        {
          "internalType": "bytes",
          "name": "",
          "type": "bytes"
        }
      ],
      "name": "onERC721Received",
      "outputs": [
        {
          "internalType": "bytes4",
          "name": "",
          "type": "bytes4"
        }
      ],
      "stateMutability": "pure",
      "type": "function"
    },
    {
      "inputs": [],
      "name": "owner",
      "outputs": [
        {
          "internalType": "address",
          "name": "",
          "type": "address"
        }
      ],
      "stateMutability": "view",
      "type": "function"
    },
    {
      "inputs": [],
      "name": "renounceOwnership",
      "outputs": [],
      "stateMutability": "nonpayable",
      "type": "function"
    },
    {
      "inputs": [
        {
          "internalType": "uint256",
          "name": "_fee",
          "type": "uint256"
        }
      ],
      "name": "setFee",
      "outputs": [],
      "stateMutability": "nonpayable",
      "type": "function"
    },
    {
      "inputs": [
        {
          "internalType": "address",
          "name": "_newRecipient",
          "type": "address"
        }
      ],
      "name": "setFeeRecipient",
      "outputs": [],
      "stateMutability": "nonpayable",
      "type": "function"
    },
    {
      "inputs": [
        {
          "internalType": "uint256",
          "name": "_tokenId",
          "type": "uint256"
        },
        {
          "internalType": "address",
          "name": "_paymentToken",
          "type": "address"
        },
        {
          "internalType": "uint256",
          "name": "_directBuyPrice",
          "type": "uint256"
        },
        {
          "internalType": "uint256",
          "name": "_startPrice",
          "type": "uint256"
        },
        {
          "internalType": "uint128",
          "name": "_startTime",
          "type": "uint128"
        },
        {
          "internalType": "uint128",
          "name": "_endTime",
          "type": "uint128"
        }
      ],
      "name": "startAuction",
      "outputs": [
        {
          "internalType": "uint256",
          "name": "auctionId",
          "type": "uint256"
        }
      ],
      "stateMutability": "nonpayable",
      "type": "function"
    },
    {
      "inputs": [
        {
          "internalType": "uint256",
          "name": "",
          "type": "uint256"
        }
      ],
      "name": "supportedERC20tokens",
      "outputs": [
        {
          "internalType": "address",
          "name": "",
          "type": "address"
        }
      ],
      "stateMutability": "view",
      "type": "function"
    },
    {
      "inputs": [
        {
          "internalType": "address",
          "name": "newOwner",
          "type": "address"
        }
      ],
      "name": "transferOwnership",
      "outputs": [],
      "stateMutability": "nonpayable",
      "type": "function"
    },
    {
      "inputs": [
        {
          "internalType": "uint256",
          "name": "_auctionId",
          "type": "uint256"
        }
      ],
      "name": "withdrawBid",
      "outputs": [],
      "stateMutability": "nonpayable",
      "type": "function"
    }
  ],
  "bytecode": "0x60a0604052600a6007553480156200001657600080fd5b5060405162004e9838038062004e9883398181016040528101906200003c919062000276565b6200005c620000506200014060201b60201c565b6200014860201b60201c565b600073ffffffffffffffffffffffffffffffffffffffff168173ffffffffffffffffffffffffffffffffffffffff161415620000c4576040517f93396dcd00000000000000000000000000000000000000000000000000000000815260040160405180910390fd5b8073ffffffffffffffffffffffffffffffffffffffff1660808173ffffffffffffffffffffffffffffffffffffffff168152505033600860006101000a81548173ffffffffffffffffffffffffffffffffffffffff021916908373ffffffffffffffffffffffffffffffffffffffff16021790555050620002a8565b600033905090565b60008060009054906101000a900473ffffffffffffffffffffffffffffffffffffffff169050816000806101000a81548173ffffffffffffffffffffffffffffffffffffffff021916908373ffffffffffffffffffffffffffffffffffffffff1602179055508173ffffffffffffffffffffffffffffffffffffffff168173ffffffffffffffffffffffffffffffffffffffff167f8be0079c531659141344cd1fd0a4f28419497f9722a3daafe3b4186f6b6457e060405160405180910390a35050565b600080fd5b600073ffffffffffffffffffffffffffffffffffffffff82169050919050565b60006200023e8262000211565b9050919050565b620002508162000231565b81146200025c57600080fd5b50565b600081519050620002708162000245565b92915050565b6000602082840312156200028f576200028e6200020c565b5b60006200029f848285016200025f565b91505092915050565b608051614b8e6200030a60003960008181610844015281816114770152818161179a01528181611a1901528181611fdb0152818161206f015281816128de01528181612b5801528181612ea40152818161332501526137fa0152614b8e6000f3fe6080604052600436106101665760003560e01c8063996ff749116100d1578063ddd54ddf1161008a578063e7fb74c711610064578063e7fb74c71461050d578063f1b2d6a314610529578063f2fde38b14610554578063fcd8d39e1461057d57610166565b8063ddd54ddf1461048b578063df7a937b146104c8578063e74b981b146104e457610166565b8063996ff74914610376578063ae40ee9f146103b3578063b9a2de3a146103e3578063d45557cc1461040c578063d7c0691914610435578063ddca3f431461046057610166565b80636d69fcaf116101235780636d69fcaf1461027c578063715018a6146102a557806381257bd5146102bc5780638da5cb5b146102e557806391dad3071461031057806396b5a7551461034d57610166565b80630eaaf4c81461016b578063132e9db614610194578063150b7a02146101d1578063305a67a81461020e578063598647f81461023757806369fe0e2d14610253575b600080fd5b34801561017757600080fd5b50610192600480360381019061018d9190613b94565b6105ba565b005b3480156101a057600080fd5b506101bb60048036038101906101b69190613c1f565b610816565b6040516101c89190613c81565b60405180910390f35b3480156101dd57600080fd5b506101f860048036038101906101f39190613d01565b610a87565b6040516102059190613dc4565b60405180910390f35b34801561021a57600080fd5b5061023560048036038101906102309190613b94565b610a9c565b005b610251600480360381019061024c9190613ddf565b610c74565b005b34801561025f57600080fd5b5061027a60048036038101906102759190613b94565b61110b565b005b34801561028857600080fd5b506102a3600480360381019061029e9190613e1f565b61119a565b005b3480156102b157600080fd5b506102ba611326565b005b3480156102c857600080fd5b506102e360048036038101906102de9190613ddf565b61133a565b005b3480156102f157600080fd5b506102fa611568565b6040516103079190613e5b565b60405180910390f35b34801561031c57600080fd5b5061033760048036038101906103329190613e76565b611591565b6040516103449190613c81565b60405180910390f35b34801561035957600080fd5b50610374600480360381019061036f9190613b94565b6115ec565b005b34801561038257600080fd5b5061039d60048036038101906103989190613b94565b611887565b6040516103aa9190614062565b60405180910390f35b6103cd60048036038101906103c89190614084565b6119f4565b6040516103da9190613c81565b60405180910390f35b3480156103ef57600080fd5b5061040a60048036038101906104059190613b94565b611dce565b005b34801561041857600080fd5b50610433600480360381019061042e9190613ddf565b612160565b005b34801561044157600080fd5b5061044a612398565b60405161045791906142da565b60405180910390f35b34801561046c57600080fd5b506104756125f1565b6040516104829190613c81565b60405180910390f35b34801561049757600080fd5b506104b260048036038101906104ad9190614328565b6125f7565b6040516104bf9190613c81565b60405180910390f35b6104e260048036038101906104dd9190613b94565b6129b3565b005b3480156104f057600080fd5b5061050b60048036038101906105069190613e1f565b612c25565b005b61052760048036038101906105229190613b94565b612c71565b005b34801561053557600080fd5b5061053e612fc3565b60405161054b9190614514565b60405180910390f35b34801561056057600080fd5b5061057b60048036038101906105769190613e1f565b61311d565b005b34801561058957600080fd5b506105a4600480360381019061059f9190613b94565b6131a1565b6040516105b19190613e5b565b60405180910390f35b600060048111156105ce576105cd613f00565b5b600282815481106105e2576105e1614536565b5b906000526020600020906009020160080160009054906101000a900460ff16600481111561061357610612613f00565b5b14156106d0576002818154811061062d5761062c614536565b5b906000526020600020906009020160030160009054906101000a900473ffffffffffffffffffffffffffffffffffffffff1673ffffffffffffffffffffffffffffffffffffffff163373ffffffffffffffffffffffffffffffffffffffff1614156106cf57806040517f0c5079780000000000000000000000000000000000000000000000000000000081526004016106c69190613c81565b60405180910390fd5b5b60006006600083815260200190815260200160002060003373ffffffffffffffffffffffffffffffffffffffff1673ffffffffffffffffffffffffffffffffffffffff168152602001908152602001600020549050600081141561076b57816040517f7bf229dd0000000000000000000000000000000000000000000000000000000081526004016107629190613c81565b60405180910390fd5b60006006600084815260200190815260200160002060003373ffffffffffffffffffffffffffffffffffffffff1673ffffffffffffffffffffffffffffffffffffffff16815260200190815260200160002081905550610812600283815481106107d8576107d7614536565b5b906000526020600020906009020160020160009054906101000a900473ffffffffffffffffffffffffffffffffffffffff163033846131e0565b5050565b600061082183613246565b61082b843361330c565b3073ffffffffffffffffffffffffffffffffffffffff167f000000000000000000000000000000000000000000000000000000000000000073ffffffffffffffffffffffffffffffffffffffff1663081812fc866040518263ffffffff1660e01b815260040161089b9190613c81565b602060405180830381865afa1580156108b8573d6000803e3d6000fd5b505050506040513d601f19601f820116820180604052508101906108dc919061457a565b73ffffffffffffffffffffffffffffffffffffffff161461093457836040517f4515987900000000000000000000000000000000000000000000000000000000815260040161092b9190613c81565b60405180910390fd5b6001805490509050600180816001815401808255809150500390600052602060002090505060006001828154811061096f5761096e614536565b5b90600052602060002090600502019050848160000181905550338160010160006101000a81548173ffffffffffffffffffffffffffffffffffffffff021916908373ffffffffffffffffffffffffffffffffffffffff160217905550838160020160006101000a81548173ffffffffffffffffffffffffffffffffffffffff021916908373ffffffffffffffffffffffffffffffffffffffff16021790555082816003018190555060008160040160006101000a81548160ff02191690836002811115610a3f57610a3e613f00565b5b02179055507fc93edc6ee14cd6c0c2842099adfa8953b237dbdad304ba28e96dce8a7f2a828c823387604051610a77939291906145a7565b60405180910390a1509392505050565b600063150b7a0260e01b905095945050505050565b60018181548110610ab057610aaf614536565b5b906000526020600020906005020160010160009054906101000a900473ffffffffffffffffffffffffffffffffffffffff1673ffffffffffffffffffffffffffffffffffffffff163373ffffffffffffffffffffffffffffffffffffffff1614610b5157806040517f33a1040b000000000000000000000000000000000000000000000000000000008152600401610b489190613c81565b60405180910390fd5b60006002811115610b6557610b64613f00565b5b60018281548110610b7957610b78614536565b5b906000526020600020906005020160040160009054906101000a900460ff166002811115610baa57610ba9613f00565b5b14610bec57806040517feb6b91fa000000000000000000000000000000000000000000000000000000008152600401610be39190613c81565b60405180910390fd5b600260018281548110610c0257610c01614536565b5b906000526020600020906005020160040160006101000a81548160ff02191690836002811115610c3557610c34613f00565b5b02179055507fc488cd4b714d7cba0f629146d7651a71b310fdf6f2b70ed73bde9d78d46dbabe81604051610c699190613c81565b60405180910390a150565b600060028381548110610c8a57610c89614536565b5b9060005260206000209060090201905060006004811115610cae57610cad613f00565b5b610cb784613419565b6004811115610cc957610cc8613f00565b5b14610d0b57826040517f3efb8f45000000000000000000000000000000000000000000000000000000008152600401610d029190613c81565b60405180910390fd5b8060030160009054906101000a900473ffffffffffffffffffffffffffffffffffffffff1673ffffffffffffffffffffffffffffffffffffffff163373ffffffffffffffffffffffffffffffffffffffff161415610da057826040517faad14439000000000000000000000000000000000000000000000000000000008152600401610d979190613c81565b60405180910390fd5b60008160020160009054906101000a900473ffffffffffffffffffffffffffffffffffffffff169050600073ffffffffffffffffffffffffffffffffffffffff168173ffffffffffffffffffffffffffffffffffffffff161415610e02573492505b60006006600086815260200190815260200160002060003373ffffffffffffffffffffffffffffffffffffffff1673ffffffffffffffffffffffffffffffffffffffff168152602001908152602001600020549050600073ffffffffffffffffffffffffffffffffffffffff168360030160009054906101000a900473ffffffffffffffffffffffffffffffffffffffff1673ffffffffffffffffffffffffffffffffffffffff1614610f075782600401548482610ec0919061460d565b11610f0257846040517fab469243000000000000000000000000000000000000000000000000000000008152600401610ef99190613c81565b60405180910390fd5b610f51565b8260060154841015610f5057846040517fab469243000000000000000000000000000000000000000000000000000000008152600401610f479190613c81565b60405180910390fd5b5b600073ffffffffffffffffffffffffffffffffffffffff168273ffffffffffffffffffffffffffffffffffffffff1614611007578173ffffffffffffffffffffffffffffffffffffffff166323b872dd3330876040518463ffffffff1660e01b8152600401610fc293929190614663565b6020604051808303816000875af1158015610fe1573d6000803e3d6000fd5b505050506040513d601f19601f8201168201806040525081019061100591906146d2565b505b8381611013919061460d565b6006600087815260200190815260200160002060003373ffffffffffffffffffffffffffffffffffffffff1673ffffffffffffffffffffffffffffffffffffffff16815260200190815260200160002081905550338360030160006101000a81548173ffffffffffffffffffffffffffffffffffffffff021916908373ffffffffffffffffffffffffffffffffffffffff16021790555083816110b6919061460d565b83600401819055507f558a0d5d5468d74b0db24c74eb348b42271c2ebb4c9e953ced38aaed95fa4361853386846110ed919061460d565b6040516110fc939291906145a7565b60405180910390a15050505050565b611113613550565b601e81111561115957806040517f235b1cc20000000000000000000000000000000000000000000000000000000081526004016111509190613c81565b60405180910390fd5b806007819055507f63fe946ed58429ac3c5e64d4356ff92c26d7fa1e73586515df8ba9f059ab54a58160405161118f9190613c81565b60405180910390a150565b6111a2613550565b600460008273ffffffffffffffffffffffffffffffffffffffff1673ffffffffffffffffffffffffffffffffffffffff16815260200190815260200160002060009054906101000a900460ff161561123157806040517f3057c7800000000000000000000000000000000000000000000000000000000081526004016112289190613e5b565b60405180910390fd5b6001600460008373ffffffffffffffffffffffffffffffffffffffff1673ffffffffffffffffffffffffffffffffffffffff16815260200190815260200160002060006101000a81548160ff0219169083151502179055506003819080600181540180825580915050600190039060005260206000200160009091909190916101000a81548173ffffffffffffffffffffffffffffffffffffffff021916908373ffffffffffffffffffffffffffffffffffffffff1602179055507f674133fffafa5256a29e9cc4c4035ada22ef8ece1fbae89d9b2cf2709c3bdcd78160405161131b9190613e5b565b60405180910390a150565b61132e613550565b61133860006135ce565b565b600060056000848152602001908152602001600020828154811061136157611360614536565b5b9060005260206000209060050201905061137b833361330c565b6000600181111561138f5761138e613f00565b5b6113998484613692565b60018111156113ab576113aa613f00565b5b146113ef5781836040517fce0cdf970000000000000000000000000000000000000000000000000000000081526004016113e69291906146ff565b60405180910390fd5b61144883338360000160009054906101000a900473ffffffffffffffffffffffffffffffffffffffff168460010160009054906101000a900473ffffffffffffffffffffffffffffffffffffffff1685600201546137f5565b60018160040160006101000a81548160ff021916908360018111156114705761146f613f00565b5b02179055507f000000000000000000000000000000000000000000000000000000000000000073ffffffffffffffffffffffffffffffffffffffff166342842e0e338360000160009054906101000a900473ffffffffffffffffffffffffffffffffffffffff16866040518463ffffffff1660e01b81526004016114f693929190614663565b600060405180830381600087803b15801561151057600080fd5b505af1158015611524573d6000803e3d6000fd5b505050507fcb229072cbcd1d5410a56504f86a872c0eac1578c7eb4463ec190b52d3b669e282843360405161155b93929190614728565b60405180910390a1505050565b60008060009054906101000a900473ffffffffffffffffffffffffffffffffffffffff16905090565b60006006600084815260200190815260200160002060008373ffffffffffffffffffffffffffffffffffffffff1673ffffffffffffffffffffffffffffffffffffffff16815260200190815260200160002054905092915050565b60028181548110611600576115ff614536565b5b906000526020600020906009020160010160009054906101000a900473ffffffffffffffffffffffffffffffffffffffff1673ffffffffffffffffffffffffffffffffffffffff163373ffffffffffffffffffffffffffffffffffffffff16146116a157806040517f33a1040b0000000000000000000000000000000000000000000000000000000081526004016116989190613c81565b60405180910390fd5b60006116ac82613419565b9050600060048111156116c2576116c1613f00565b5b8160048111156116d5576116d4613f00565b5b141580156117085750600160048111156116f2576116f1613f00565b5b81600481111561170557611704613f00565b5b14155b1561174a57816040517f9c3d0ad10000000000000000000000000000000000000000000000000000000081526004016117419190613c81565b60405180910390fd5b6004600283815481106117605761175f614536565b5b906000526020600020906009020160080160006101000a81548160ff0219169083600481111561179357611792613f00565b5b02179055507f000000000000000000000000000000000000000000000000000000000000000073ffffffffffffffffffffffffffffffffffffffff166342842e0e3033600286815481106117ea576117e9614536565b5b9060005260206000209060090201600001546040518463ffffffff1660e01b815260040161181a93929190614663565b600060405180830381600087803b15801561183457600080fd5b505af1158015611848573d6000803e3d6000fd5b505050507f28601d865dccc9f113e15a7185c1b38c085d598c71250d3337916a428536d7718260405161187b9190613c81565b60405180910390a15050565b606060056000838152602001908152602001600020805480602002602001604051908101604052809291908181526020016000905b828210156119e957838290600052602060002090600502016040518060a00160405290816000820160009054906101000a900473ffffffffffffffffffffffffffffffffffffffff1673ffffffffffffffffffffffffffffffffffffffff1673ffffffffffffffffffffffffffffffffffffffff1681526020016001820160009054906101000a900473ffffffffffffffffffffffffffffffffffffffff1673ffffffffffffffffffffffffffffffffffffffff1673ffffffffffffffffffffffffffffffffffffffff16815260200160028201548152602001600382015481526020016004820160009054906101000a900460ff1660018111156119c4576119c3613f00565b5b60018111156119d6576119d5613f00565b5b81525050815260200190600101906118bc565b505050509050919050565b60006119ff84613246565b600073ffffffffffffffffffffffffffffffffffffffff167f000000000000000000000000000000000000000000000000000000000000000073ffffffffffffffffffffffffffffffffffffffff16636352211e876040518263ffffffff1660e01b8152600401611a709190613c81565b602060405180830381865afa158015611a8d573d6000803e3d6000fd5b505050506040513d601f19601f82011682018060405250810190611ab1919061457a565b73ffffffffffffffffffffffffffffffffffffffff161415611ad257600080fd5b428211611b0b576040517f34c2e65000000000000000000000000000000000000000000000000000000000815260040160405180910390fd5b600073ffffffffffffffffffffffffffffffffffffffff168473ffffffffffffffffffffffffffffffffffffffff161415611b7e57823414611b79576040517f503e537c00000000000000000000000000000000000000000000000000000000815260040160405180910390fd5b611c34565b828473ffffffffffffffffffffffffffffffffffffffff1663dd62ed3e33306040518363ffffffff1660e01b8152600401611bba92919061475f565b602060405180830381865afa158015611bd7573d6000803e3d6000fd5b505050506040513d601f19601f82011682018060405250810190611bfb919061479d565b1015611c33576040517fb16e90a200000000000000000000000000000000000000000000000000000000815260040160405180910390fd5b5b6005600086815260200190815260200160002080549050905060056000868152602001908152602001600020600181600181540180825580915050039060005260206000209050506000600560008781526020019081526020016000208281548110611ca357611ca2614536565b5b90600052602060002090600502019050338160000160006101000a81548173ffffffffffffffffffffffffffffffffffffffff021916908373ffffffffffffffffffffffffffffffffffffffff160217905550848160010160006101000a81548173ffffffffffffffffffffffffffffffffffffffff021916908373ffffffffffffffffffffffffffffffffffffffff160217905550838160020181905550826fffffffffffffffffffffffffffffffff16816003018190555060008160040160006101000a81548160ff02191690836001811115611d8557611d84613f00565b5b02179055507fefda68dc90a0bc6f999b14e14c27c803c35cffe140e95bee2f13bae025877ad0828733604051611dbd93929190614728565b60405180910390a150949350505050565b600060028281548110611de457611de3614536565b5b9060005260206000209060090201905060026004811115611e0857611e07613f00565b5b611e1183613419565b6004811115611e2357611e22613f00565b5b141580611e66575060006004811115611e3f57611e3e613f00565b5b8160080160009054906101000a900460ff166004811115611e6357611e62613f00565b5b14155b15611eca57818160070160109054906101000a90046fffffffffffffffffffffffffffffffff166040517f628ba6be000000000000000000000000000000000000000000000000000000008152600401611ec1929190614805565b60405180910390fd5b60008160000154905060028260080160006101000a81548160ff02191690836004811115611efb57611efa613f00565b5b021790555060008073ffffffffffffffffffffffffffffffffffffffff168360030160009054906101000a900473ffffffffffffffffffffffffffffffffffffffff1673ffffffffffffffffffffffffffffffffffffffff161461206d578260030160009054906101000a900473ffffffffffffffffffffffffffffffffffffffff169050611fd9828460010160009054906101000a900473ffffffffffffffffffffffffffffffffffffffff16308660020160009054906101000a900473ffffffffffffffffffffffffffffffffffffffff1687600401546137f5565b7f000000000000000000000000000000000000000000000000000000000000000073ffffffffffffffffffffffffffffffffffffffff166342842e0e3083856040518463ffffffff1660e01b815260040161203693929190614663565b600060405180830381600087803b15801561205057600080fd5b505af1158015612064573d6000803e3d6000fd5b50505050612121565b7f000000000000000000000000000000000000000000000000000000000000000073ffffffffffffffffffffffffffffffffffffffff166342842e0e308560010160009054906101000a900473ffffffffffffffffffffffffffffffffffffffff16856040518463ffffffff1660e01b81526004016120ee93929190614663565b600060405180830381600087803b15801561210857600080fd5b505af115801561211c573d6000803e3d6000fd5b505050505b7fc07789fac136048b605fef8e227ab89b2e33d8afc9ab4817d374197cd81443d6848260405161215292919061482e565b60405180910390a150505050565b600060056000848152602001908152602001600020828154811061218757612186614536565b5b906000526020600020906005020190508060000160009054906101000a900473ffffffffffffffffffffffffffffffffffffffff1673ffffffffffffffffffffffffffffffffffffffff163373ffffffffffffffffffffffffffffffffffffffff161461222d5781836040517f9c80e0350000000000000000000000000000000000000000000000000000000081526004016122249291906146ff565b60405180910390fd5b6000600181111561224157612240613f00565b5b61224b8484613692565b600181111561225d5761225c613f00565b5b146122a15781836040517fce0cdf970000000000000000000000000000000000000000000000000000000081526004016122989291906146ff565b60405180910390fd5b60018160040160006101000a81548160ff021916908360018111156122c9576122c8613f00565b5b0217905550600073ffffffffffffffffffffffffffffffffffffffff168160010160009054906101000a900473ffffffffffffffffffffffffffffffffffffffff1673ffffffffffffffffffffffffffffffffffffffff16141561235a576123598160000160009054906101000a900473ffffffffffffffffffffffffffffffffffffffff168260020154613991565b5b7fc3631089d86cf1fe0600bb8be145021dc1f4dbf1053ce815836f092d69cd9bdc828460405161238b9291906146ff565b60405180910390a1505050565b60606002805480602002602001604051908101604052809291908181526020016000905b828210156125e8578382906000526020600020906009020160405180610140016040529081600082015481526020016001820160009054906101000a900473ffffffffffffffffffffffffffffffffffffffff1673ffffffffffffffffffffffffffffffffffffffff1673ffffffffffffffffffffffffffffffffffffffff1681526020016002820160009054906101000a900473ffffffffffffffffffffffffffffffffffffffff1673ffffffffffffffffffffffffffffffffffffffff1673ffffffffffffffffffffffffffffffffffffffff1681526020016003820160009054906101000a900473ffffffffffffffffffffffffffffffffffffffff1673ffffffffffffffffffffffffffffffffffffffff1673ffffffffffffffffffffffffffffffffffffffff1681526020016004820154815260200160058201548152602001600682015481526020016007820160009054906101000a90046fffffffffffffffffffffffffffffffff166fffffffffffffffffffffffffffffffff166fffffffffffffffffffffffffffffffff1681526020016007820160109054906101000a90046fffffffffffffffffffffffffffffffff166fffffffffffffffffffffffffffffffff166fffffffffffffffffffffffffffffffff1681526020016008820160009054906101000a900460ff1660048111156125c3576125c2613f00565b5b60048111156125d5576125d4613f00565b5b81525050815260200190600101906123bc565b50505050905090565b60075481565b600061260286613246565b61260c873361330c565b826fffffffffffffffffffffffffffffffff16826fffffffffffffffffffffffffffffffff16116126765781836040517f763de07600000000000000000000000000000000000000000000000000000000815260040161266d929190614857565b60405180910390fd5b42836fffffffffffffffffffffffffffffffff1610156126cd57826040517ffac992a00000000000000000000000000000000000000000000000000000000081526004016126c49190614880565b60405180910390fd5b6000841415612708576040517f7bcde71700000000000000000000000000000000000000000000000000000000815260040160405180910390fd5b83851161274c57846040517fbd7fb1690000000000000000000000000000000000000000000000000000000081526004016127439190613c81565b60405180910390fd5b600280549050905060026001816001815401808255809150500390600052602060002090505060006002828154811061278857612787614536565b5b90600052602060002090600902019050878160000181905550338160010160006101000a81548173ffffffffffffffffffffffffffffffffffffffff021916908373ffffffffffffffffffffffffffffffffffffffff160217905550868160020160006101000a81548173ffffffffffffffffffffffffffffffffffffffff021916908373ffffffffffffffffffffffffffffffffffffffff160217905550858160050181905550848160060181905550838160070160006101000a8154816fffffffffffffffffffffffffffffffff02191690836fffffffffffffffffffffffffffffffff160217905550828160070160106101000a8154816fffffffffffffffffffffffffffffffff02191690836fffffffffffffffffffffffffffffffff16021790555060008160080160006101000a81548160ff021916908360048111156128d7576128d6613f00565b5b02179055507f000000000000000000000000000000000000000000000000000000000000000073ffffffffffffffffffffffffffffffffffffffff166342842e0e33308b6040518463ffffffff1660e01b815260040161293993929190614663565b600060405180830381600087803b15801561295357600080fd5b505af1158015612967573d6000803e3d6000fd5b505050507fbf6dc7bdf2f23af5a506fe03ee1221f47d023a2227fbc949c6b812ae44534e6d82338a876040516129a0949392919061489b565b60405180910390a1509695505050505050565b6000600282815481106129c9576129c8614536565b5b90600052602060002090600902019050600060048111156129ed576129ec613f00565b5b6129f683613419565b6004811115612a0857612a07613f00565b5b14612a4a57816040517f3efb8f45000000000000000000000000000000000000000000000000000000008152600401612a419190613c81565b60405180910390fd5b60008160000154905060008260020160009054906101000a900473ffffffffffffffffffffffffffffffffffffffff169050600083600501549050600073ffffffffffffffffffffffffffffffffffffffff168273ffffffffffffffffffffffffffffffffffffffff16148015612ac15750803414155b15612af8576040517f503e537c00000000000000000000000000000000000000000000000000000000815260040160405180910390fd5b612b29838560010160009054906101000a900473ffffffffffffffffffffffffffffffffffffffff163385856137f5565b60038460080160006101000a81548160ff02191690836004811115612b5157612b50613f00565b5b02179055507f000000000000000000000000000000000000000000000000000000000000000073ffffffffffffffffffffffffffffffffffffffff166342842e0e3033866040518463ffffffff1660e01b8152600401612bb393929190614663565b600060405180830381600087803b158015612bcd57600080fd5b505af1158015612be1573d6000803e3d6000fd5b505050507fe5cec6200009b45d3289b1846e63800084e6cead28e6936e6914934d50e6734f8533604051612c1692919061482e565b60405180910390a15050505050565b612c2d613550565b80600860006101000a81548173ffffffffffffffffffffffffffffffffffffffff021916908373ffffffffffffffffffffffffffffffffffffffff16021790555050565b600060018281548110612c8757612c86614536565b5b90600052602060002090600502016040518060a0016040529081600082015481526020016001820160009054906101000a900473ffffffffffffffffffffffffffffffffffffffff1673ffffffffffffffffffffffffffffffffffffffff1673ffffffffffffffffffffffffffffffffffffffff1681526020016002820160009054906101000a900473ffffffffffffffffffffffffffffffffffffffff1673ffffffffffffffffffffffffffffffffffffffff1673ffffffffffffffffffffffffffffffffffffffff168152602001600382015481526020016004820160009054906101000a900460ff166002811115612d8557612d84613f00565b5b6002811115612d9757612d96613f00565b5b81525050905060006002811115612db157612db0613f00565b5b81608001516002811115612dc857612dc7613f00565b5b14612e0a57816040517feb6b91fa000000000000000000000000000000000000000000000000000000008152600401612e019190613c81565b60405180910390fd5b600073ffffffffffffffffffffffffffffffffffffffff16816040015173ffffffffffffffffffffffffffffffffffffffff16148015612e4e575080606001513414155b15612e85576040517f503e537c00000000000000000000000000000000000000000000000000000000815260040160405180910390fd5b612ea28160000151826020015133846040015185606001516137f5565b7f000000000000000000000000000000000000000000000000000000000000000073ffffffffffffffffffffffffffffffffffffffff166342842e0e82602001513384600001516040518463ffffffff1660e01b8152600401612f0793929190614663565b600060405180830381600087803b158015612f2157600080fd5b505af1158015612f35573d6000803e3d6000fd5b505050506001808381548110612f4e57612f4d614536565b5b906000526020600020906005020160040160006101000a81548160ff02191690836002811115612f8157612f80613f00565b5b02179055507f7de4035ced290be6d7724645d43bad448b5d8cc76743ff4da172c2d8e1caa0f58233604051612fb792919061482e565b60405180910390a15050565b60606001805480602002602001604051908101604052809291908181526020016000905b8282101561311457838290600052602060002090600502016040518060a0016040529081600082015481526020016001820160009054906101000a900473ffffffffffffffffffffffffffffffffffffffff1673ffffffffffffffffffffffffffffffffffffffff1673ffffffffffffffffffffffffffffffffffffffff1681526020016002820160009054906101000a900473ffffffffffffffffffffffffffffffffffffffff1673ffffffffffffffffffffffffffffffffffffffff1673ffffffffffffffffffffffffffffffffffffffff168152602001600382015481526020016004820160009054906101000a900460ff1660028111156130ef576130ee613f00565b5b600281111561310157613100613f00565b5b8152505081526020019060010190612fe7565b50505050905090565b613125613550565b600073ffffffffffffffffffffffffffffffffffffffff168173ffffffffffffffffffffffffffffffffffffffff161415613195576040517f08c379a000000000000000000000000000000000000000000000000000000000815260040161318c90614963565b60405180910390fd5b61319e816135ce565b50565b600381815481106131b157600080fd5b906000526020600020016000915054906101000a900473ffffffffffffffffffffffffffffffffffffffff1681565b60008114156131ee57613240565b600073ffffffffffffffffffffffffffffffffffffffff168473ffffffffffffffffffffffffffffffffffffffff1614156132325761322d8282613991565b61323f565b61323e84848484613a0c565b5b5b50505050565b600073ffffffffffffffffffffffffffffffffffffffff168173ffffffffffffffffffffffffffffffffffffffff161461330957600460008273ffffffffffffffffffffffffffffffffffffffff1673ffffffffffffffffffffffffffffffffffffffff16815260200190815260200160002060009054906101000a900460ff1661330857806040517f9d42ae530000000000000000000000000000000000000000000000000000000081526004016132ff9190613e5b565b60405180910390fd5b5b50565b8073ffffffffffffffffffffffffffffffffffffffff167f000000000000000000000000000000000000000000000000000000000000000073ffffffffffffffffffffffffffffffffffffffff16636352211e846040518263ffffffff1660e01b815260040161337c9190613c81565b602060405180830381865afa158015613399573d6000803e3d6000fd5b505050506040513d601f19601f820116820180604052508101906133bd919061457a565b73ffffffffffffffffffffffffffffffffffffffff161461341557816040517fe8aebc8c00000000000000000000000000000000000000000000000000000000815260040161340c9190613c81565b60405180910390fd5b5050565b600080600283815481106134305761342f614536565b5b9060005260206000209060090201905060008160080160009054906101000a900460ff16905060048081111561346957613468613f00565b5b81600481111561347c5761347b613f00565b5b14806134ac57506003600481111561349757613496613f00565b5b8160048111156134aa576134a9613f00565b5b145b156134bb57809250505061354b565b428260070160009054906101000a90046fffffffffffffffffffffffffffffffff166fffffffffffffffffffffffffffffffff1611156135005760019250505061354b565b8160070160109054906101000a90046fffffffffffffffffffffffffffffffff166fffffffffffffffffffffffffffffffff1642116135445760009250505061354b565b6002925050505b919050565b613558613b4c565b73ffffffffffffffffffffffffffffffffffffffff16613576611568565b73ffffffffffffffffffffffffffffffffffffffff16146135cc576040517f08c379a00000000000000000000000000000000000000000000000000000000081526004016135c3906149cf565b60405180910390fd5b565b60008060009054906101000a900473ffffffffffffffffffffffffffffffffffffffff169050816000806101000a81548173ffffffffffffffffffffffffffffffffffffffff021916908373ffffffffffffffffffffffffffffffffffffffff1602179055508173ffffffffffffffffffffffffffffffffffffffff168173ffffffffffffffffffffffffffffffffffffffff167f8be0079c531659141344cd1fd0a4f28419497f9722a3daafe3b4186f6b6457e060405160405180910390a35050565b6000806005600085815260200190815260200160002083815481106136ba576136b9614536565b5b90600052602060002090600502016040518060a00160405290816000820160009054906101000a900473ffffffffffffffffffffffffffffffffffffffff1673ffffffffffffffffffffffffffffffffffffffff1673ffffffffffffffffffffffffffffffffffffffff1681526020016001820160009054906101000a900473ffffffffffffffffffffffffffffffffffffffff1673ffffffffffffffffffffffffffffffffffffffff1673ffffffffffffffffffffffffffffffffffffffff16815260200160028201548152602001600382015481526020016004820160009054906101000a900460ff1660018111156137b8576137b7613f00565b5b60018111156137ca576137c9613f00565b5b81525050905080606001514211156137e65760019150506137ef565b80608001519150505b92915050565b6000807f000000000000000000000000000000000000000000000000000000000000000073ffffffffffffffffffffffffffffffffffffffff16632a55205a88856040518363ffffffff1660e01b81526004016138539291906146ff565b6040805180830381865afa15801561386f573d6000803e3d6000fd5b505050506040513d601f19601f8201168201806040525081019061389391906149ef565b9150915060006103e8600754856138aa9190614a2f565b6138b49190614ab8565b90506138e48587600860009054906101000a900473ffffffffffffffffffffffffffffffffffffffff16846131e0565b600081850390508373ffffffffffffffffffffffffffffffffffffffff168873ffffffffffffffffffffffffffffffffffffffff1614158015613928575060008314155b1561397a57613939868886866131e0565b82810390507ff670029fc6f5302baba881b4ae845d1453acdf752b4c19ed81fe0fa6a686409b898585604051613971939291906145a7565b60405180910390a15b61398686888a846131e0565b505050505050505050565b60008273ffffffffffffffffffffffffffffffffffffffff16826040516139b790614b1a565b60006040518083038185875af1925050503d80600081146139f4576040519150601f19603f3d011682016040523d82523d6000602084013e6139f9565b606091505b5050905080613a0757600080fd5b505050565b3073ffffffffffffffffffffffffffffffffffffffff168373ffffffffffffffffffffffffffffffffffffffff161415613ac4578373ffffffffffffffffffffffffffffffffffffffff1663a9059cbb83836040518363ffffffff1660e01b8152600401613a7b929190614b2f565b6020604051808303816000875af1158015613a9a573d6000803e3d6000fd5b505050506040513d601f19601f82011682018060405250810190613abe91906146d2565b50613b46565b8373ffffffffffffffffffffffffffffffffffffffff166323b872dd8484846040518463ffffffff1660e01b8152600401613b0193929190614663565b6020604051808303816000875af1158015613b20573d6000803e3d6000fd5b505050506040513d601f19601f82011682018060405250810190613b4491906146d2565b505b50505050565b600033905090565b600080fd5b600080fd5b6000819050919050565b613b7181613b5e565b8114613b7c57600080fd5b50565b600081359050613b8e81613b68565b92915050565b600060208284031215613baa57613ba9613b54565b5b6000613bb884828501613b7f565b91505092915050565b600073ffffffffffffffffffffffffffffffffffffffff82169050919050565b6000613bec82613bc1565b9050919050565b613bfc81613be1565b8114613c0757600080fd5b50565b600081359050613c1981613bf3565b92915050565b600080600060608486031215613c3857613c37613b54565b5b6000613c4686828701613b7f565b9350506020613c5786828701613c0a565b9250506040613c6886828701613b7f565b9150509250925092565b613c7b81613b5e565b82525050565b6000602082019050613c966000830184613c72565b92915050565b600080fd5b600080fd5b600080fd5b60008083601f840112613cc157613cc0613c9c565b5b8235905067ffffffffffffffff811115613cde57613cdd613ca1565b5b602083019150836001820283011115613cfa57613cf9613ca6565b5b9250929050565b600080600080600060808688031215613d1d57613d1c613b54565b5b6000613d2b88828901613c0a565b9550506020613d3c88828901613c0a565b9450506040613d4d88828901613b7f565b935050606086013567ffffffffffffffff811115613d6e57613d6d613b59565b5b613d7a88828901613cab565b92509250509295509295909350565b60007fffffffff0000000000000000000000000000000000000000000000000000000082169050919050565b613dbe81613d89565b82525050565b6000602082019050613dd96000830184613db5565b92915050565b60008060408385031215613df657613df5613b54565b5b6000613e0485828601613b7f565b9250506020613e1585828601613b7f565b9150509250929050565b600060208284031215613e3557613e34613b54565b5b6000613e4384828501613c0a565b91505092915050565b613e5581613be1565b82525050565b6000602082019050613e706000830184613e4c565b92915050565b60008060408385031215613e8d57613e8c613b54565b5b6000613e9b85828601613b7f565b9250506020613eac85828601613c0a565b9150509250929050565b600081519050919050565b600082825260208201905092915050565b6000819050602082019050919050565b613eeb81613be1565b82525050565b613efa81613b5e565b82525050565b7f4e487b7100000000000000000000000000000000000000000000000000000000600052602160045260246000fd5b60028110613f4057613f3f613f00565b5b50565b6000819050613f5182613f2f565b919050565b6000613f6182613f43565b9050919050565b613f7181613f56565b82525050565b60a082016000820151613f8d6000850182613ee2565b506020820151613fa06020850182613ee2565b506040820151613fb36040850182613ef1565b506060820151613fc66060850182613ef1565b506080820151613fd96080850182613f68565b50505050565b6000613feb8383613f77565b60a08301905092915050565b6000602082019050919050565b600061400f82613eb6565b6140198185613ec1565b935061402483613ed2565b8060005b8381101561405557815161403c8882613fdf565b975061404783613ff7565b925050600181019050614028565b5085935050505092915050565b6000602082019050818103600083015261407c8184614004565b905092915050565b6000806000806080858703121561409e5761409d613b54565b5b60006140ac87828801613b7f565b94505060206140bd87828801613c0a565b93505060406140ce87828801613b7f565b92505060606140df87828801613b7f565b91505092959194509250565b600081519050919050565b600082825260208201905092915050565b6000819050602082019050919050565b60006fffffffffffffffffffffffffffffffff82169050919050565b61413c81614117565b82525050565b6005811061415357614152613f00565b5b50565b600081905061416482614142565b919050565b600061417482614156565b9050919050565b61418481614169565b82525050565b610140820160008201516141a16000850182613ef1565b5060208201516141b46020850182613ee2565b5060408201516141c76040850182613ee2565b5060608201516141da6060850182613ee2565b5060808201516141ed6080850182613ef1565b5060a082015161420060a0850182613ef1565b5060c082015161421360c0850182613ef1565b5060e082015161422660e0850182614133565b5061010082015161423b610100850182614133565b5061012082015161425061012085018261417b565b50505050565b6000614262838361418a565b6101408301905092915050565b6000602082019050919050565b6000614287826140eb565b61429181856140f6565b935061429c83614107565b8060005b838110156142cd5781516142b48882614256565b97506142bf8361426f565b9250506001810190506142a0565b5085935050505092915050565b600060208201905081810360008301526142f4818461427c565b905092915050565b61430581614117565b811461431057600080fd5b50565b600081359050614322816142fc565b92915050565b60008060008060008060c0878903121561434557614344613b54565b5b600061435389828a01613b7f565b965050602061436489828a01613c0a565b955050604061437589828a01613b7f565b945050606061438689828a01613b7f565b935050608061439789828a01614313565b92505060a06143a889828a01614313565b9150509295509295509295565b600081519050919050565b600082825260208201905092915050565b6000819050602082019050919050565b600381106143f2576143f1613f00565b5b50565b6000819050614403826143e1565b919050565b6000614413826143f5565b9050919050565b61442381614408565b82525050565b60a08201600082015161443f6000850182613ef1565b5060208201516144526020850182613ee2565b5060408201516144656040850182613ee2565b5060608201516144786060850182613ef1565b50608082015161448b608085018261441a565b50505050565b600061449d8383614429565b60a08301905092915050565b6000602082019050919050565b60006144c1826143b5565b6144cb81856143c0565b93506144d6836143d1565b8060005b838110156145075781516144ee8882614491565b97506144f9836144a9565b9250506001810190506144da565b5085935050505092915050565b6000602082019050818103600083015261452e81846144b6565b905092915050565b7f4e487b7100000000000000000000000000000000000000000000000000000000600052603260045260246000fd5b60008151905061457481613bf3565b92915050565b6000602082840312156145905761458f613b54565b5b600061459e84828501614565565b91505092915050565b60006060820190506145bc6000830186613c72565b6145c96020830185613e4c565b6145d66040830184613c72565b949350505050565b7f4e487b7100000000000000000000000000000000000000000000000000000000600052601160045260246000fd5b600061461882613b5e565b915061462383613b5e565b9250827fffffffffffffffffffffffffffffffffffffffffffffffffffffffffffffffff03821115614658576146576145de565b5b828201905092915050565b60006060820190506146786000830186613e4c565b6146856020830185613e4c565b6146926040830184613c72565b949350505050565b60008115159050919050565b6146af8161469a565b81146146ba57600080fd5b50565b6000815190506146cc816146a6565b92915050565b6000602082840312156146e8576146e7613b54565b5b60006146f6848285016146bd565b91505092915050565b60006040820190506147146000830185613c72565b6147216020830184613c72565b9392505050565b600060608201905061473d6000830186613c72565b61474a6020830185613c72565b6147576040830184613e4c565b949350505050565b60006040820190506147746000830185613e4c565b6147816020830184613e4c565b9392505050565b60008151905061479781613b68565b92915050565b6000602082840312156147b3576147b2613b54565b5b60006147c184828501614788565b91505092915050565b6000819050919050565b60006147ef6147ea6147e584614117565b6147ca565b613b5e565b9050919050565b6147ff816147d4565b82525050565b600060408201905061481a6000830185613c72565b61482760208301846147f6565b9392505050565b60006040820190506148436000830185613c72565b6148506020830184613e4c565b9392505050565b600060408201905061486c60008301856147f6565b61487960208301846147f6565b9392505050565b600060208201905061489560008301846147f6565b92915050565b60006080820190506148b06000830187613c72565b6148bd6020830186613e4c565b6148ca6040830185613c72565b6148d760608301846147f6565b95945050505050565b600082825260208201905092915050565b7f4f776e61626c653a206e6577206f776e657220697320746865207a65726f206160008201527f6464726573730000000000000000000000000000000000000000000000000000602082015250565b600061494d6026836148e0565b9150614958826148f1565b604082019050919050565b6000602082019050818103600083015261497c81614940565b9050919050565b7f4f776e61626c653a2063616c6c6572206973206e6f7420746865206f776e6572600082015250565b60006149b96020836148e0565b91506149c482614983565b602082019050919050565b600060208201905081810360008301526149e8816149ac565b9050919050565b60008060408385031215614a0657614a05613b54565b5b6000614a1485828601614565565b9250506020614a2585828601614788565b9150509250929050565b6000614a3a82613b5e565b9150614a4583613b5e565b9250817fffffffffffffffffffffffffffffffffffffffffffffffffffffffffffffffff0483118215151615614a7e57614a7d6145de565b5b828202905092915050565b7f4e487b7100000000000000000000000000000000000000000000000000000000600052601260045260246000fd5b6000614ac382613b5e565b9150614ace83613b5e565b925082614ade57614add614a89565b5b828204905092915050565b600081905092915050565b50565b6000614b04600083614ae9565b9150614b0f82614af4565b600082019050919050565b6000614b2582614af7565b9150819050919050565b6000604082019050614b446000830185613e4c565b614b516020830184613c72565b939250505056fea26469706673582212200db41ae3c9d73c51b5e656aa0c042edc0fa856f48cfbad2637459eb1265737a364736f6c634300080a0033",
  "linkReferences": {},
  "deployedLinkReferences": {}
}