{
  "_format": "hh-sol-artifact-1",
  "contractName": "AARTCollection",
  "sourceName": "contracts/AARTCollection.sol",
  "abi": [
    {
      "inputs": [
        {
          "internalType": "uint256",
          "name": "_mintingFee",
          "type": "uint256"
        }
      ],
      "stateMutability": "nonpayable",
      "type": "constructor"
    },
    {
      "inputs": [],
      "name": "AART__ContractIsPaused",
      "type": "error"
    },
    {
      "inputs": [],
      "name": "AART__InsufficientAmount",
      "type": "error"
    },
    {
      "anonymous": false,
      "inputs": [
        {
          "indexed": false,
          "internalType": "uint256",
          "name": "newFee",
          "type": "uint256"
        }
      ],
      "name": "AART__NewMintFee",
      "type": "event"
    },
    {
      "anonymous": false,
      "inputs": [
        {
          "indexed": false,
          "internalType": "uint256",
          "name": "state",
          "type": "uint256"
        }
      ],
      "name": "AART__Pause",
      "type": "event"
    },
    {
      "anonymous": false,
      "inputs": [
        {
          "indexed": true,
          "internalType": "address",
          "name": "owner",
          "type": "address"
        },
        {
          "indexed": true,
          "internalType": "address",
          "name": "approved",
          "type": "address"
        },
        {
          "indexed": true,
          "internalType": "uint256",
          "name": "tokenId",
          "type": "uint256"
        }
      ],
      "name": "Approval",
      "type": "event"
    },
    {
      "anonymous": false,
      "inputs": [
        {
          "indexed": true,
          "internalType": "address",
          "name": "owner",
          "type": "address"
        },
        {
          "indexed": true,
          "internalType": "address",
          "name": "operator",
          "type": "address"
        },
        {
          "indexed": false,
          "internalType": "bool",
          "name": "approved",
          "type": "bool"
        }
      ],
      "name": "ApprovalForAll",
      "type": "event"
    },
    {
      "anonymous": false,
      "inputs": [
        {
          "indexed": true,
          "internalType": "address",
          "name": "previousOwner",
          "type": "address"
        },
        {
          "indexed": true,
          "internalType": "address",
          "name": "newOwner",
          "type": "address"
        }
      ],
      "name": "OwnershipTransferred",
      "type": "event"
    },
    {
      "anonymous": false,
      "inputs": [
        {
          "indexed": true,
          "internalType": "address",
          "name": "from",
          "type": "address"
        },
        {
          "indexed": true,
          "internalType": "address",
          "name": "to",
          "type": "address"
        },
        {
          "indexed": true,
          "internalType": "uint256",
          "name": "tokenId",
          "type": "uint256"
        }
      ],
      "name": "Transfer",
      "type": "event"
    },
    {
      "inputs": [
        {
          "internalType": "address",
          "name": "to",
          "type": "address"
        },
        {
          "internalType": "uint256",
          "name": "tokenId",
          "type": "uint256"
        }
      ],
      "name": "approve",
      "outputs": [],
      "stateMutability": "nonpayable",
      "type": "function"
    },
    {
      "inputs": [
        {
          "internalType": "address",
          "name": "owner",
          "type": "address"
        }
      ],
      "name": "balanceOf",
      "outputs": [
        {
          "internalType": "uint256",
          "name": "",
          "type": "uint256"
        }
      ],
      "stateMutability": "view",
      "type": "function"
    },
    {
      "inputs": [],
      "name": "getAllNfts",
      "outputs": [
        {
          "components": [
            {
              "internalType": "uint256",
              "name": "id",
              "type": "uint256"
            },
            {
              "internalType": "string",
              "name": "uri",
              "type": "string"
            }
          ],
          "internalType": "struct AARTCollection.ArtRender[]",
          "name": "",
          "type": "tuple[]"
        }
      ],
      "stateMutability": "view",
      "type": "function"
    },
    {
      "inputs": [
        {
          "internalType": "uint256",
          "name": "tokenId",
          "type": "uint256"
        }
      ],
      "name": "getApproved",
      "outputs": [
        {
          "internalType": "address",
          "name": "",
          "type": "address"
        }
      ],
      "stateMutability": "view",
      "type": "function"
    },
    {
      "inputs": [
        {
          "internalType": "address",
          "name": "account",
          "type": "address"
        }
      ],
      "name": "getUserNfts",
      "outputs": [
        {
          "components": [
            {
              "internalType": "uint256",
              "name": "id",
              "type": "uint256"
            },
            {
              "internalType": "string",
              "name": "uri",
              "type": "string"
            }
          ],
          "internalType": "struct AARTCollection.ArtRender[]",
          "name": "",
          "type": "tuple[]"
        }
      ],
      "stateMutability": "view",
      "type": "function"
    },
    {
      "inputs": [
        {
          "internalType": "address",
          "name": "owner",
          "type": "address"
        },
        {
          "internalType": "address",
          "name": "operator",
          "type": "address"
        }
      ],
      "name": "isApprovedForAll",
      "outputs": [
        {
          "internalType": "bool",
          "name": "",
          "type": "bool"
        }
      ],
      "stateMutability": "view",
      "type": "function"
    },
    {
      "inputs": [],
      "name": "mintFee",
      "outputs": [
        {
          "internalType": "uint256",
          "name": "",
          "type": "uint256"
        }
      ],
      "stateMutability": "view",
      "type": "function"
    },
    {
      "inputs": [
        {
          "internalType": "address",
          "name": "recipient",
          "type": "address"
        },
        {
          "internalType": "string",
          "name": "uri",
          "type": "string"
        }
      ],
      "name": "mintNFT",
      "outputs": [
        {
          "internalType": "uint256",
          "name": "",
          "type": "uint256"
        }
      ],
      "stateMutability": "payable",
      "type": "function"
    },
    {
      "inputs": [
        {
          "internalType": "address",
          "name": "recipient",
          "type": "address"
        },
        {
          "internalType": "string",
          "name": "uri",
          "type": "string"
        },
        {
          "internalType": "address",
          "name": "royaltyReceiver",
          "type": "address"
        },
        {
          "internalType": "uint96",
          "name": "feeNumerator",
          "type": "uint96"
        }
      ],
      "name": "mintWithRoyalty",
      "outputs": [
        {
          "internalType": "uint256",
          "name": "",
          "type": "uint256"
        }
      ],
      "stateMutability": "payable",
      "type": "function"
    },
    {
      "inputs": [],
      "name": "name",
      "outputs": [
        {
          "internalType": "string",
          "name": "",
          "type": "string"
        }
      ],
      "stateMutability": "view",
      "type": "function"
    },
    {
      "inputs": [],
      "name": "owner",
      "outputs": [
        {
          "internalType": "address",
          "name": "",
          "type": "address"
        }
      ],
      "stateMutability": "view",
      "type": "function"
    },
    {
      "inputs": [
        {
          "internalType": "uint256",
          "name": "tokenId",
          "type": "uint256"
        }
      ],
      "name": "ownerOf",
      "outputs": [
        {
          "internalType": "address",
          "name": "",
          "type": "address"
        }
      ],
      "stateMutability": "view",
      "type": "function"
    },
    {
      "inputs": [
        {
          "internalType": "uint256",
          "name": "_state",
          "type": "uint256"
        }
      ],
      "name": "pause",
      "outputs": [],
      "stateMutability": "payable",
      "type": "function"
    },
    {
      "inputs": [],
      "name": "paused",
      "outputs": [
        {
          "internalType": "uint256",
          "name": "",
          "type": "uint256"
        }
      ],
      "stateMutability": "view",
      "type": "function"
    },
    {
      "inputs": [],
      "name": "renounceOwnership",
      "outputs": [],
      "stateMutability": "nonpayable",
      "type": "function"
    },
    {
      "inputs": [
        {
          "internalType": "uint256",
          "name": "_tokenId",
          "type": "uint256"
        },
        {
          "internalType": "uint256",
          "name": "_salePrice",
          "type": "uint256"
        }
      ],
      "name": "royaltyInfo",
      "outputs": [
        {
          "internalType": "address",
          "name": "",
          "type": "address"
        },
        {
          "internalType": "uint256",
          "name": "",
          "type": "uint256"
        }
      ],
      "stateMutability": "view",
      "type": "function"
    },
    {
      "inputs": [
        {
          "internalType": "address",
          "name": "from",
          "type": "address"
        },
        {
          "internalType": "address",
          "name": "to",
          "type": "address"
        },
        {
          "internalType": "uint256",
          "name": "tokenId",
          "type": "uint256"
        }
      ],
      "name": "safeTransferFrom",
      "outputs": [],
      "stateMutability": "nonpayable",
      "type": "function"
    },
    {
      "inputs": [
        {
          "internalType": "address",
          "name": "from",
          "type": "address"
        },
        {
          "internalType": "address",
          "name": "to",
          "type": "address"
        },
        {
          "internalType": "uint256",
          "name": "tokenId",
          "type": "uint256"
        },
        {
          "internalType": "bytes",
          "name": "data",
          "type": "bytes"
        }
      ],
      "name": "safeTransferFrom",
      "outputs": [],
      "stateMutability": "nonpayable",
      "type": "function"
    },
    {
      "inputs": [
        {
          "internalType": "address",
          "name": "operator",
          "type": "address"
        },
        {
          "internalType": "bool",
          "name": "approved",
          "type": "bool"
        }
      ],
      "name": "setApprovalForAll",
      "outputs": [],
      "stateMutability": "nonpayable",
      "type": "function"
    },
    {
      "inputs": [
        {
          "internalType": "uint256",
          "name": "_newFee",
          "type": "uint256"
        }
      ],
      "name": "setMintFee",
      "outputs": [],
      "stateMutability": "payable",
      "type": "function"
    },
    {
      "inputs": [
        {
          "internalType": "bytes4",
          "name": "interfaceId",
          "type": "bytes4"
        }
      ],
      "name": "supportsInterface",
      "outputs": [
        {
          "internalType": "bool",
          "name": "",
          "type": "bool"
        }
      ],
      "stateMutability": "view",
      "type": "function"
    },
    {
      "inputs": [],
      "name": "symbol",
      "outputs": [
        {
          "internalType": "string",
          "name": "",
          "type": "string"
        }
      ],
      "stateMutability": "view",
      "type": "function"
    },
    {
      "inputs": [
        {
          "internalType": "uint256",
          "name": "tokenId",
          "type": "uint256"
        }
      ],
      "name": "tokenURI",
      "outputs": [
        {
          "internalType": "string",
          "name": "",
          "type": "string"
        }
      ],
      "stateMutability": "view",
      "type": "function"
    },
    {
      "inputs": [
        {
          "internalType": "address",
          "name": "from",
          "type": "address"
        },
        {
          "internalType": "address",
          "name": "to",
          "type": "address"
        },
        {
          "internalType": "uint256",
          "name": "tokenId",
          "type": "uint256"
        }
      ],
      "name": "transferFrom",
      "outputs": [],
      "stateMutability": "nonpayable",
      "type": "function"
    },
    {
      "inputs": [
        {
          "internalType": "address",
          "name": "newOwner",
          "type": "address"
        }
      ],
      "name": "transferOwnership",
      "outputs": [],
      "stateMutability": "nonpayable",
      "type": "function"
    },
    {
      "inputs": [],
      "name": "withdraw",
      "outputs": [],
      "stateMutability": "payable",
      "type": "function"
    }
  ],
  "bytecode": "0x60806040526001600b55600a600c553480156200001b57600080fd5b506040516200400b3803806200400b83398181016040528101906200004191906200048e565b6040518060400160405280601981526020017f41727469666369656c2041727420436f6c6c65637469626c65000000000000008152506040518060400160405280600481526020017f41415254000000000000000000000000000000000000000000000000000000008152508160009080519060200190620000c59291906200039e565b508060019080519060200190620000de9291906200039e565b50505062000101620000f56200012260201b60201c565b6200012a60201b60201c565b80600c819055506200011b336000620001f060201b60201c565b5062000640565b600033905090565b6000600960009054906101000a900473ffffffffffffffffffffffffffffffffffffffff16905081600960006101000a81548173ffffffffffffffffffffffffffffffffffffffff021916908373ffffffffffffffffffffffffffffffffffffffff1602179055508173ffffffffffffffffffffffffffffffffffffffff168173ffffffffffffffffffffffffffffffffffffffff167f8be0079c531659141344cd1fd0a4f28419497f9722a3daafe3b4186f6b6457e060405160405180910390a35050565b620002006200039460201b60201c565b6bffffffffffffffffffffffff16816bffffffffffffffffffffffff16111562000261576040517f08c379a0000000000000000000000000000000000000000000000000000000008152600401620002589062000547565b60405180910390fd5b600073ffffffffffffffffffffffffffffffffffffffff168273ffffffffffffffffffffffffffffffffffffffff161415620002d4576040517f08c379a0000000000000000000000000000000000000000000000000000000008152600401620002cb90620005b9565b60405180910390fd5b60405180604001604052808373ffffffffffffffffffffffffffffffffffffffff168152602001826bffffffffffffffffffffffff16815250600760008201518160000160006101000a81548173ffffffffffffffffffffffffffffffffffffffff021916908373ffffffffffffffffffffffffffffffffffffffff16021790555060208201518160000160146101000a8154816bffffffffffffffffffffffff02191690836bffffffffffffffffffffffff1602179055509050505050565b6000612710905090565b828054620003ac906200060a565b90600052602060002090601f016020900481019282620003d057600085556200041c565b82601f10620003eb57805160ff19168380011785556200041c565b828001600101855582156200041c579182015b828111156200041b578251825591602001919060010190620003fe565b5b5090506200042b91906200042f565b5090565b5b808211156200044a57600081600090555060010162000430565b5090565b600080fd5b6000819050919050565b620004688162000453565b81146200047457600080fd5b50565b60008151905062000488816200045d565b92915050565b600060208284031215620004a757620004a66200044e565b5b6000620004b78482850162000477565b91505092915050565b600082825260208201905092915050565b7f455243323938313a20726f79616c7479206665652077696c6c2065786365656460008201527f2073616c65507269636500000000000000000000000000000000000000000000602082015250565b60006200052f602a83620004c0565b91506200053c82620004d1565b604082019050919050565b60006020820190508181036000830152620005628162000520565b9050919050565b7f455243323938313a20696e76616c696420726563656976657200000000000000600082015250565b6000620005a1601983620004c0565b9150620005ae8262000569565b602082019050919050565b60006020820190508181036000830152620005d48162000592565b9050919050565b7f4e487b7100000000000000000000000000000000000000000000000000000000600052602260045260246000fd5b600060028204905060018216806200062357607f821691505b602082108114156200063a5762000639620005db565b5b50919050565b6139bb80620006506000396000f3fe6080604052600436106101815760003560e01c806370a08231116100d1578063a22cb4651161008a578063e985e9c511610064578063e985e9c51461056e578063eacabe14146105ab578063eddd0d9c146105db578063f2fde38b146105f757610181565b8063a22cb465146104df578063b88d4fde14610508578063c87b56dd1461053157610181565b806370a08231146103cd578063715018a61461040a578063732e8d73146104215780637908d0091461044c5780638da5cb5b1461048957806395d89b41146104b457610181565b806323b872dd1161013e57806342842e0e1161011857806342842e0e1461030c57806344e96670146103355780635c975abb146103655780636352211e1461039057610181565b806323b872dd1461029b5780632a55205a146102c45780633ccfd60b1461030257610181565b806301ffc9a71461018657806306fdde03146101c3578063081812fc146101ee578063095ea7b31461022b578063136439dd1461025457806313966db514610270575b600080fd5b34801561019257600080fd5b506101ad60048036038101906101a89190612568565b610620565b6040516101ba91906125b0565b60405180910390f35b3480156101cf57600080fd5b506101d8610632565b6040516101e59190612664565b60405180910390f35b3480156101fa57600080fd5b50610215600480360381019061021091906126bc565b6106c4565b604051610222919061272a565b60405180910390f35b34801561023757600080fd5b50610252600480360381019061024d9190612771565b61070a565b005b61026e600480360381019061026991906126bc565b610822565b005b34801561027c57600080fd5b50610285610880565b60405161029291906127c0565b60405180910390f35b3480156102a757600080fd5b506102c260048036038101906102bd91906127db565b610886565b005b3480156102d057600080fd5b506102eb60048036038101906102e6919061282e565b6108e6565b6040516102f992919061286e565b60405180910390f35b61030a610ad1565b005b34801561031857600080fd5b50610333600480360381019061032e91906127db565b610b59565b005b61034f600480360381019061034a9190612a10565b610b79565b60405161035c91906127c0565b60405180910390f35b34801561037157600080fd5b5061037a610b9f565b60405161038791906127c0565b60405180910390f35b34801561039c57600080fd5b506103b760048036038101906103b291906126bc565b610ba5565b6040516103c4919061272a565b60405180910390f35b3480156103d957600080fd5b506103f460048036038101906103ef9190612a93565b610c2c565b60405161040191906127c0565b60405180910390f35b34801561041657600080fd5b5061041f610ce4565b005b34801561042d57600080fd5b50610436610cf8565b6040516104439190612c18565b60405180910390f35b34801561045857600080fd5b50610473600480360381019061046e9190612a93565b610dc0565b6040516104809190612c18565b60405180910390f35b34801561049557600080fd5b5061049e610ee5565b6040516104ab919061272a565b60405180910390f35b3480156104c057600080fd5b506104c9610f0f565b6040516104d69190612664565b60405180910390f35b3480156104eb57600080fd5b5061050660048036038101906105019190612c66565b610fa1565b005b34801561051457600080fd5b5061052f600480360381019061052a9190612d47565b610fb7565b005b34801561053d57600080fd5b50610558600480360381019061055391906126bc565b611019565b6040516105659190612664565b60405180910390f35b34801561057a57600080fd5b5061059560048036038101906105909190612dca565b6110be565b6040516105a291906125b0565b60405180910390f35b6105c560048036038101906105c09190612e0a565b611152565b6040516105d291906127c0565b60405180910390f35b6105f560048036038101906105f091906126bc565b611166565b005b34801561060357600080fd5b5061061e60048036038101906106199190612a93565b6111af565b005b600061062b82611233565b9050919050565b60606000805461064190612e95565b80601f016020809104026020016040519081016040528092919081815260200182805461066d90612e95565b80156106ba5780601f1061068f576101008083540402835291602001916106ba565b820191906000526020600020905b81548152906001019060200180831161069d57829003601f168201915b5050505050905090565b60006106cf826112ad565b6004600083815260200190815260200160002060009054906101000a900473ffffffffffffffffffffffffffffffffffffffff169050919050565b600061071582610ba5565b90508073ffffffffffffffffffffffffffffffffffffffff168373ffffffffffffffffffffffffffffffffffffffff161415610786576040517f08c379a000000000000000000000000000000000000000000000000000000000815260040161077d90612f39565b60405180910390fd5b8073ffffffffffffffffffffffffffffffffffffffff166107a56112f8565b73ffffffffffffffffffffffffffffffffffffffff1614806107d457506107d3816107ce6112f8565b6110be565b5b610813576040517f08c379a000000000000000000000000000000000000000000000000000000000815260040161080a90612fcb565b60405180910390fd5b61081d8383611300565b505050565b61082a6113b9565b60018114806108395750600281145b156108465780600b819055505b7f2c3dbc3aaf02e80a17764303fc7a5f3a4b6c2aa610f99cff91adc9e9c4f2fe6e8160405161087591906127c0565b60405180910390a150565b600c5481565b6108976108916112f8565b82611437565b6108d6576040517f08c379a00000000000000000000000000000000000000000000000000000000081526004016108cd9061305d565b60405180910390fd5b6108e18383836114cc565b505050565b6000806000600860008681526020019081526020016000206040518060400160405290816000820160009054906101000a900473ffffffffffffffffffffffffffffffffffffffff1673ffffffffffffffffffffffffffffffffffffffff1673ffffffffffffffffffffffffffffffffffffffff1681526020016000820160149054906101000a90046bffffffffffffffffffffffff166bffffffffffffffffffffffff166bffffffffffffffffffffffff16815250509050600073ffffffffffffffffffffffffffffffffffffffff16816000015173ffffffffffffffffffffffffffffffffffffffff161415610a7c5760076040518060400160405290816000820160009054906101000a900473ffffffffffffffffffffffffffffffffffffffff1673ffffffffffffffffffffffffffffffffffffffff1673ffffffffffffffffffffffffffffffffffffffff1681526020016000820160149054906101000a90046bffffffffffffffffffffffff166bffffffffffffffffffffffff166bffffffffffffffffffffffff168152505090505b6000610a866117c6565b6bffffffffffffffffffffffff1682602001516bffffffffffffffffffffffff1686610ab291906130ac565b610abc9190613135565b90508160000151819350935050509250929050565b610ad96113b9565b6000610ae3610ee5565b73ffffffffffffffffffffffffffffffffffffffff1647604051610b0690613197565b60006040518083038185875af1925050503d8060008114610b43576040519150601f19603f3d011682016040523d82523d6000602084013e610b48565b606091505b5050905080610b5657600080fd5b50565b610b7483838360405180602001604052806000815250610fb7565b505050565b600080610b8686866117d0565b9050610b93818585611880565b80915050949350505050565b600b5481565b600080610bb183611a28565b9050600073ffffffffffffffffffffffffffffffffffffffff168173ffffffffffffffffffffffffffffffffffffffff161415610c23576040517f08c379a0000000000000000000000000000000000000000000000000000000008152600401610c1a906131f8565b60405180910390fd5b80915050919050565b60008073ffffffffffffffffffffffffffffffffffffffff168273ffffffffffffffffffffffffffffffffffffffff161415610c9d576040517f08c379a0000000000000000000000000000000000000000000000000000000008152600401610c949061328a565b60405180910390fd5b600360008373ffffffffffffffffffffffffffffffffffffffff1673ffffffffffffffffffffffffffffffffffffffff168152602001908152602001600020549050919050565b610cec6113b9565b610cf66000611a65565b565b60606000610d06600a611b2b565b905060008167ffffffffffffffff811115610d2457610d236128a1565b5b604051908082528060200260200182016040528015610d5d57816020015b610d4a61243f565b815260200190600190039081610d425790505b50905060005b82811015610db7576000610d7682611019565b9050604051806040016040528083815260200182815250838381518110610da057610d9f6132aa565b5b602002602001018190525081600101915050610d63565b50809250505090565b60606000610dce600a611b2b565b90506000610ddb84610c2c565b905060008167ffffffffffffffff811115610df957610df86128a1565b5b604051908082528060200260200182016040528015610e3257816020015b610e1f61243f565b815260200190600190039081610e175790505b5090506000805b84811015610ed8578673ffffffffffffffffffffffffffffffffffffffff16610e6182610ba5565b73ffffffffffffffffffffffffffffffffffffffff161415610ecd576000610e8882611019565b9050604051806040016040528083815260200182815250848481518110610eb257610eb16132aa565b5b60200260200101819052508280610ec8906132d9565b935050505b806001019050610e39565b5081945050505050919050565b6000600960009054906101000a900473ffffffffffffffffffffffffffffffffffffffff16905090565b606060018054610f1e90612e95565b80601f0160208091040260200160405190810160405280929190818152602001828054610f4a90612e95565b8015610f975780601f10610f6c57610100808354040283529160200191610f97565b820191906000526020600020905b815481529060010190602001808311610f7a57829003601f168201915b5050505050905090565b610fb3610fac6112f8565b8383611b39565b5050565b610fc8610fc26112f8565b83611437565b611007576040517f08c379a0000000000000000000000000000000000000000000000000000000008152600401610ffe9061305d565b60405180910390fd5b61101384848484611ca6565b50505050565b6060600d6000838152602001908152602001600020805461103990612e95565b80601f016020809104026020016040519081016040528092919081815260200182805461106590612e95565b80156110b25780601f10611087576101008083540402835291602001916110b2565b820191906000526020600020905b81548152906001019060200180831161109557829003601f168201915b50505050509050919050565b6000600560008473ffffffffffffffffffffffffffffffffffffffff1673ffffffffffffffffffffffffffffffffffffffff16815260200190815260200160002060008373ffffffffffffffffffffffffffffffffffffffff1673ffffffffffffffffffffffffffffffffffffffff16815260200190815260200160002060009054906101000a900460ff16905092915050565b600061115e83836117d0565b905092915050565b61116e6113b9565b80600c819055507f12ce0818faf64908a849e56f58d1ddc6dcf8b6a4d6479565d8f12f8a9bd96cba816040516111a491906127c0565b60405180910390a150565b6111b76113b9565b600073ffffffffffffffffffffffffffffffffffffffff168173ffffffffffffffffffffffffffffffffffffffff161415611227576040517f08c379a000000000000000000000000000000000000000000000000000000000815260040161121e90613394565b60405180910390fd5b61123081611a65565b50565b60007f2a55205a000000000000000000000000000000000000000000000000000000007bffffffffffffffffffffffffffffffffffffffffffffffffffffffff1916827bffffffffffffffffffffffffffffffffffffffffffffffffffffffff191614806112a657506112a582611d02565b5b9050919050565b6112b681611de4565b6112f5576040517f08c379a00000000000000000000000000000000000000000000000000000000081526004016112ec906131f8565b60405180910390fd5b50565b600033905090565b816004600083815260200190815260200160002060006101000a81548173ffffffffffffffffffffffffffffffffffffffff021916908373ffffffffffffffffffffffffffffffffffffffff160217905550808273ffffffffffffffffffffffffffffffffffffffff1661137383610ba5565b73ffffffffffffffffffffffffffffffffffffffff167f8c5be1e5ebec7d5bd14f71427d1e84f3dd0314c0f7b2291e5b200ac8c7c3b92560405160405180910390a45050565b6113c16112f8565b73ffffffffffffffffffffffffffffffffffffffff166113df610ee5565b73ffffffffffffffffffffffffffffffffffffffff1614611435576040517f08c379a000000000000000000000000000000000000000000000000000000000815260040161142c90613400565b60405180910390fd5b565b60008061144383610ba5565b90508073ffffffffffffffffffffffffffffffffffffffff168473ffffffffffffffffffffffffffffffffffffffff161480611485575061148481856110be565b5b806114c357508373ffffffffffffffffffffffffffffffffffffffff166114ab846106c4565b73ffffffffffffffffffffffffffffffffffffffff16145b91505092915050565b8273ffffffffffffffffffffffffffffffffffffffff166114ec82610ba5565b73ffffffffffffffffffffffffffffffffffffffff1614611542576040517f08c379a000000000000000000000000000000000000000000000000000000000815260040161153990613492565b60405180910390fd5b600073ffffffffffffffffffffffffffffffffffffffff168273ffffffffffffffffffffffffffffffffffffffff1614156115b2576040517f08c379a00000000000000000000000000000000000000000000000000000000081526004016115a990613524565b60405180910390fd5b6115bf8383836001611e25565b8273ffffffffffffffffffffffffffffffffffffffff166115df82610ba5565b73ffffffffffffffffffffffffffffffffffffffff1614611635576040517f08c379a000000000000000000000000000000000000000000000000000000000815260040161162c90613492565b60405180910390fd5b6004600082815260200190815260200160002060006101000a81549073ffffffffffffffffffffffffffffffffffffffff02191690556001600360008573ffffffffffffffffffffffffffffffffffffffff1673ffffffffffffffffffffffffffffffffffffffff168152602001908152602001600020600082825403925050819055506001600360008473ffffffffffffffffffffffffffffffffffffffff1673ffffffffffffffffffffffffffffffffffffffff16815260200190815260200160002060008282540192505081905550816002600083815260200190815260200160002060006101000a81548173ffffffffffffffffffffffffffffffffffffffff021916908373ffffffffffffffffffffffffffffffffffffffff160217905550808273ffffffffffffffffffffffffffffffffffffffff168473ffffffffffffffffffffffffffffffffffffffff167fddf252ad1be2c89b69c2b068fc378daa952ba7f163c4a11628f55a4df523b3ef60405160405180910390a46117c18383836001611f4b565b505050565b6000612710905090565b60006001600b54141561180f576040517f3bdade4100000000000000000000000000000000000000000000000000000000815260040160405180910390fd5b600c54341461184a576040517f61dfc75800000000000000000000000000000000000000000000000000000000815260040160405180910390fd5b6000611856600a611b2b565b9050611862600a611f51565b61186c8482611f67565b6118768184611f85565b8091505092915050565b6118886117c6565b6bffffffffffffffffffffffff16816bffffffffffffffffffffffff1611156118e6576040517f08c379a00000000000000000000000000000000000000000000000000000000081526004016118dd906135b6565b60405180910390fd5b600073ffffffffffffffffffffffffffffffffffffffff168273ffffffffffffffffffffffffffffffffffffffff161415611956576040517f08c379a000000000000000000000000000000000000000000000000000000000815260040161194d90613622565b60405180910390fd5b60405180604001604052808373ffffffffffffffffffffffffffffffffffffffff168152602001826bffffffffffffffffffffffff168152506008600085815260200190815260200160002060008201518160000160006101000a81548173ffffffffffffffffffffffffffffffffffffffff021916908373ffffffffffffffffffffffffffffffffffffffff16021790555060208201518160000160146101000a8154816bffffffffffffffffffffffff02191690836bffffffffffffffffffffffff160217905550905050505050565b60006002600083815260200190815260200160002060009054906101000a900473ffffffffffffffffffffffffffffffffffffffff169050919050565b6000600960009054906101000a900473ffffffffffffffffffffffffffffffffffffffff16905081600960006101000a81548173ffffffffffffffffffffffffffffffffffffffff021916908373ffffffffffffffffffffffffffffffffffffffff1602179055508173ffffffffffffffffffffffffffffffffffffffff168173ffffffffffffffffffffffffffffffffffffffff167f8be0079c531659141344cd1fd0a4f28419497f9722a3daafe3b4186f6b6457e060405160405180910390a35050565b600081600001549050919050565b8173ffffffffffffffffffffffffffffffffffffffff168373ffffffffffffffffffffffffffffffffffffffff161415611ba8576040517f08c379a0000000000000000000000000000000000000000000000000000000008152600401611b9f9061368e565b60405180910390fd5b80600560008573ffffffffffffffffffffffffffffffffffffffff1673ffffffffffffffffffffffffffffffffffffffff16815260200190815260200160002060008473ffffffffffffffffffffffffffffffffffffffff1673ffffffffffffffffffffffffffffffffffffffff16815260200190815260200160002060006101000a81548160ff0219169083151502179055508173ffffffffffffffffffffffffffffffffffffffff168373ffffffffffffffffffffffffffffffffffffffff167f17307eab39ab6107e8899845ad3d59bd9653f200f220920489ca2b5937696c3183604051611c9991906125b0565b60405180910390a3505050565b611cb18484846114cc565b611cbd84848484611fb1565b611cfc576040517f08c379a0000000000000000000000000000000000000000000000000000000008152600401611cf390613720565b60405180910390fd5b50505050565b60007f80ac58cd000000000000000000000000000000000000000000000000000000007bffffffffffffffffffffffffffffffffffffffffffffffffffffffff1916827bffffffffffffffffffffffffffffffffffffffffffffffffffffffff19161480611dcd57507f5b5e139f000000000000000000000000000000000000000000000000000000007bffffffffffffffffffffffffffffffffffffffffffffffffffffffff1916827bffffffffffffffffffffffffffffffffffffffffffffffffffffffff1916145b80611ddd5750611ddc82612139565b5b9050919050565b60008073ffffffffffffffffffffffffffffffffffffffff16611e0683611a28565b73ffffffffffffffffffffffffffffffffffffffff1614159050919050565b6001811115611f4557600073ffffffffffffffffffffffffffffffffffffffff168473ffffffffffffffffffffffffffffffffffffffff1614611eb95780600360008673ffffffffffffffffffffffffffffffffffffffff1673ffffffffffffffffffffffffffffffffffffffff1681526020019081526020016000206000828254611eb19190613740565b925050819055505b600073ffffffffffffffffffffffffffffffffffffffff168373ffffffffffffffffffffffffffffffffffffffff1614611f445780600360008573ffffffffffffffffffffffffffffffffffffffff1673ffffffffffffffffffffffffffffffffffffffff1681526020019081526020016000206000828254611f3c9190613774565b925050819055505b5b50505050565b50505050565b6001816000016000828254019250508190555050565b611f818282604051806020016040528060008152506121a3565b5050565b80600d60008481526020019081526020016000209080519060200190611fac929190612459565b505050565b6000611fd28473ffffffffffffffffffffffffffffffffffffffff166121fe565b1561212c578373ffffffffffffffffffffffffffffffffffffffff1663150b7a02611ffb6112f8565b8786866040518563ffffffff1660e01b815260040161201d949392919061381f565b6020604051808303816000875af192505050801561205957506040513d601f19601f820116820180604052508101906120569190613880565b60015b6120dc573d8060008114612089576040519150601f19603f3d011682016040523d82523d6000602084013e61208e565b606091505b506000815114156120d4576040517f08c379a00000000000000000000000000000000000000000000000000000000081526004016120cb90613720565b60405180910390fd5b805181602001fd5b63150b7a0260e01b7bffffffffffffffffffffffffffffffffffffffffffffffffffffffff1916817bffffffffffffffffffffffffffffffffffffffffffffffffffffffff191614915050612131565b600190505b949350505050565b60007f01ffc9a7000000000000000000000000000000000000000000000000000000007bffffffffffffffffffffffffffffffffffffffffffffffffffffffff1916827bffffffffffffffffffffffffffffffffffffffffffffffffffffffff1916149050919050565b6121ad8383612221565b6121ba6000848484611fb1565b6121f9576040517f08c379a00000000000000000000000000000000000000000000000000000000081526004016121f090613720565b60405180910390fd5b505050565b6000808273ffffffffffffffffffffffffffffffffffffffff163b119050919050565b600073ffffffffffffffffffffffffffffffffffffffff168273ffffffffffffffffffffffffffffffffffffffff161415612291576040517f08c379a0000000000000000000000000000000000000000000000000000000008152600401612288906138f9565b60405180910390fd5b61229a81611de4565b156122da576040517f08c379a00000000000000000000000000000000000000000000000000000000081526004016122d190613965565b60405180910390fd5b6122e8600083836001611e25565b6122f181611de4565b15612331576040517f08c379a000000000000000000000000000000000000000000000000000000000815260040161232890613965565b60405180910390fd5b6001600360008473ffffffffffffffffffffffffffffffffffffffff1673ffffffffffffffffffffffffffffffffffffffff16815260200190815260200160002060008282540192505081905550816002600083815260200190815260200160002060006101000a81548173ffffffffffffffffffffffffffffffffffffffff021916908373ffffffffffffffffffffffffffffffffffffffff160217905550808273ffffffffffffffffffffffffffffffffffffffff16600073ffffffffffffffffffffffffffffffffffffffff167fddf252ad1be2c89b69c2b068fc378daa952ba7f163c4a11628f55a4df523b3ef60405160405180910390a461243b600083836001611f4b565b5050565b604051806040016040528060008152602001606081525090565b82805461246590612e95565b90600052602060002090601f01602090048101928261248757600085556124ce565b82601f106124a057805160ff19168380011785556124ce565b828001600101855582156124ce579182015b828111156124cd5782518255916020019190600101906124b2565b5b5090506124db91906124df565b5090565b5b808211156124f85760008160009055506001016124e0565b5090565b6000604051905090565b600080fd5b600080fd5b60007fffffffff0000000000000000000000000000000000000000000000000000000082169050919050565b61254581612510565b811461255057600080fd5b50565b6000813590506125628161253c565b92915050565b60006020828403121561257e5761257d612506565b5b600061258c84828501612553565b91505092915050565b60008115159050919050565b6125aa81612595565b82525050565b60006020820190506125c560008301846125a1565b92915050565b600081519050919050565b600082825260208201905092915050565b60005b838110156126055780820151818401526020810190506125ea565b83811115612614576000848401525b50505050565b6000601f19601f8301169050919050565b6000612636826125cb565b61264081856125d6565b93506126508185602086016125e7565b6126598161261a565b840191505092915050565b6000602082019050818103600083015261267e818461262b565b905092915050565b6000819050919050565b61269981612686565b81146126a457600080fd5b50565b6000813590506126b681612690565b92915050565b6000602082840312156126d2576126d1612506565b5b60006126e0848285016126a7565b91505092915050565b600073ffffffffffffffffffffffffffffffffffffffff82169050919050565b6000612714826126e9565b9050919050565b61272481612709565b82525050565b600060208201905061273f600083018461271b565b92915050565b61274e81612709565b811461275957600080fd5b50565b60008135905061276b81612745565b92915050565b6000806040838503121561278857612787612506565b5b60006127968582860161275c565b92505060206127a7858286016126a7565b9150509250929050565b6127ba81612686565b82525050565b60006020820190506127d560008301846127b1565b92915050565b6000806000606084860312156127f4576127f3612506565b5b60006128028682870161275c565b93505060206128138682870161275c565b9250506040612824868287016126a7565b9150509250925092565b6000806040838503121561284557612844612506565b5b6000612853858286016126a7565b9250506020612864858286016126a7565b9150509250929050565b6000604082019050612883600083018561271b565b61289060208301846127b1565b9392505050565b600080fd5b600080fd5b7f4e487b7100000000000000000000000000000000000000000000000000000000600052604160045260246000fd5b6128d98261261a565b810181811067ffffffffffffffff821117156128f8576128f76128a1565b5b80604052505050565b600061290b6124fc565b905061291782826128d0565b919050565b600067ffffffffffffffff821115612937576129366128a1565b5b6129408261261a565b9050602081019050919050565b82818337600083830152505050565b600061296f61296a8461291c565b612901565b90508281526020810184848401111561298b5761298a61289c565b5b61299684828561294d565b509392505050565b600082601f8301126129b3576129b2612897565b5b81356129c384826020860161295c565b91505092915050565b60006bffffffffffffffffffffffff82169050919050565b6129ed816129cc565b81146129f857600080fd5b50565b600081359050612a0a816129e4565b92915050565b60008060008060808587031215612a2a57612a29612506565b5b6000612a388782880161275c565b945050602085013567ffffffffffffffff811115612a5957612a5861250b565b5b612a658782880161299e565b9350506040612a768782880161275c565b9250506060612a87878288016129fb565b91505092959194509250565b600060208284031215612aa957612aa8612506565b5b6000612ab78482850161275c565b91505092915050565b600081519050919050565b600082825260208201905092915050565b6000819050602082019050919050565b612af581612686565b82525050565b600082825260208201905092915050565b6000612b17826125cb565b612b218185612afb565b9350612b318185602086016125e7565b612b3a8161261a565b840191505092915050565b6000604083016000830151612b5d6000860182612aec565b5060208301518482036020860152612b758282612b0c565b9150508091505092915050565b6000612b8e8383612b45565b905092915050565b6000602082019050919050565b6000612bae82612ac0565b612bb88185612acb565b935083602082028501612bca85612adc565b8060005b85811015612c065784840389528151612be78582612b82565b9450612bf283612b96565b925060208a01995050600181019050612bce565b50829750879550505050505092915050565b60006020820190508181036000830152612c328184612ba3565b905092915050565b612c4381612595565b8114612c4e57600080fd5b50565b600081359050612c6081612c3a565b92915050565b60008060408385031215612c7d57612c7c612506565b5b6000612c8b8582860161275c565b9250506020612c9c85828601612c51565b9150509250929050565b600067ffffffffffffffff821115612cc157612cc06128a1565b5b612cca8261261a565b9050602081019050919050565b6000612cea612ce584612ca6565b612901565b905082815260208101848484011115612d0657612d0561289c565b5b612d1184828561294d565b509392505050565b600082601f830112612d2e57612d2d612897565b5b8135612d3e848260208601612cd7565b91505092915050565b60008060008060808587031215612d6157612d60612506565b5b6000612d6f8782880161275c565b9450506020612d808782880161275c565b9350506040612d91878288016126a7565b925050606085013567ffffffffffffffff811115612db257612db161250b565b5b612dbe87828801612d19565b91505092959194509250565b60008060408385031215612de157612de0612506565b5b6000612def8582860161275c565b9250506020612e008582860161275c565b9150509250929050565b60008060408385031215612e2157612e20612506565b5b6000612e2f8582860161275c565b925050602083013567ffffffffffffffff811115612e5057612e4f61250b565b5b612e5c8582860161299e565b9150509250929050565b7f4e487b7100000000000000000000000000000000000000000000000000000000600052602260045260246000fd5b60006002820490506001821680612ead57607f821691505b60208210811415612ec157612ec0612e66565b5b50919050565b7f4552433732313a20617070726f76616c20746f2063757272656e74206f776e6560008201527f7200000000000000000000000000000000000000000000000000000000000000602082015250565b6000612f236021836125d6565b9150612f2e82612ec7565b604082019050919050565b60006020820190508181036000830152612f5281612f16565b9050919050565b7f4552433732313a20617070726f76652063616c6c6572206973206e6f7420746f60008201527f6b656e206f776e6572206f7220617070726f76656420666f7220616c6c000000602082015250565b6000612fb5603d836125d6565b9150612fc082612f59565b604082019050919050565b60006020820190508181036000830152612fe481612fa8565b9050919050565b7f4552433732313a2063616c6c6572206973206e6f7420746f6b656e206f776e6560008201527f72206f7220617070726f76656400000000000000000000000000000000000000602082015250565b6000613047602d836125d6565b915061305282612feb565b604082019050919050565b600060208201905081810360008301526130768161303a565b9050919050565b7f4e487b7100000000000000000000000000000000000000000000000000000000600052601160045260246000fd5b60006130b782612686565b91506130c283612686565b9250817fffffffffffffffffffffffffffffffffffffffffffffffffffffffffffffffff04831182151516156130fb576130fa61307d565b5b828202905092915050565b7f4e487b7100000000000000000000000000000000000000000000000000000000600052601260045260246000fd5b600061314082612686565b915061314b83612686565b92508261315b5761315a613106565b5b828204905092915050565b600081905092915050565b50565b6000613181600083613166565b915061318c82613171565b600082019050919050565b60006131a282613174565b9150819050919050565b7f4552433732313a20696e76616c696420746f6b656e2049440000000000000000600082015250565b60006131e26018836125d6565b91506131ed826131ac565b602082019050919050565b60006020820190508181036000830152613211816131d5565b9050919050565b7f4552433732313a2061646472657373207a65726f206973206e6f74206120766160008201527f6c6964206f776e65720000000000000000000000000000000000000000000000602082015250565b60006132746029836125d6565b915061327f82613218565b604082019050919050565b600060208201905081810360008301526132a381613267565b9050919050565b7f4e487b7100000000000000000000000000000000000000000000000000000000600052603260045260246000fd5b60006132e482612686565b91507fffffffffffffffffffffffffffffffffffffffffffffffffffffffffffffffff8214156133175761331661307d565b5b600182019050919050565b7f4f776e61626c653a206e6577206f776e657220697320746865207a65726f206160008201527f6464726573730000000000000000000000000000000000000000000000000000602082015250565b600061337e6026836125d6565b915061338982613322565b604082019050919050565b600060208201905081810360008301526133ad81613371565b9050919050565b7f4f776e61626c653a2063616c6c6572206973206e6f7420746865206f776e6572600082015250565b60006133ea6020836125d6565b91506133f5826133b4565b602082019050919050565b60006020820190508181036000830152613419816133dd565b9050919050565b7f4552433732313a207472616e736665722066726f6d20696e636f72726563742060008201527f6f776e6572000000000000000000000000000000000000000000000000000000602082015250565b600061347c6025836125d6565b915061348782613420565b604082019050919050565b600060208201905081810360008301526134ab8161346f565b9050919050565b7f4552433732313a207472616e7366657220746f20746865207a65726f2061646460008201527f7265737300000000000000000000000000000000000000000000000000000000602082015250565b600061350e6024836125d6565b9150613519826134b2565b604082019050919050565b6000602082019050818103600083015261353d81613501565b9050919050565b7f455243323938313a20726f79616c7479206665652077696c6c2065786365656460008201527f2073616c65507269636500000000000000000000000000000000000000000000602082015250565b60006135a0602a836125d6565b91506135ab82613544565b604082019050919050565b600060208201905081810360008301526135cf81613593565b9050919050565b7f455243323938313a20496e76616c696420706172616d65746572730000000000600082015250565b600061360c601b836125d6565b9150613617826135d6565b602082019050919050565b6000602082019050818103600083015261363b816135ff565b9050919050565b7f4552433732313a20617070726f766520746f2063616c6c657200000000000000600082015250565b60006136786019836125d6565b915061368382613642565b602082019050919050565b600060208201905081810360008301526136a78161366b565b9050919050565b7f4552433732313a207472616e7366657220746f206e6f6e20455243373231526560008201527f63656976657220696d706c656d656e7465720000000000000000000000000000602082015250565b600061370a6032836125d6565b9150613715826136ae565b604082019050919050565b60006020820190508181036000830152613739816136fd565b9050919050565b600061374b82612686565b915061375683612686565b9250828210156137695761376861307d565b5b828203905092915050565b600061377f82612686565b915061378a83612686565b9250827fffffffffffffffffffffffffffffffffffffffffffffffffffffffffffffffff038211156137bf576137be61307d565b5b828201905092915050565b600081519050919050565b600082825260208201905092915050565b60006137f1826137ca565b6137fb81856137d5565b935061380b8185602086016125e7565b6138148161261a565b840191505092915050565b6000608082019050613834600083018761271b565b613841602083018661271b565b61384e60408301856127b1565b818103606083015261386081846137e6565b905095945050505050565b60008151905061387a8161253c565b92915050565b60006020828403121561389657613895612506565b5b60006138a48482850161386b565b91505092915050565b7f4552433732313a206d696e7420746f20746865207a65726f2061646472657373600082015250565b60006138e36020836125d6565b91506138ee826138ad565b602082019050919050565b60006020820190508181036000830152613912816138d6565b9050919050565b7f4552433732313a20746f6b656e20616c7265616479206d696e74656400000000600082015250565b600061394f601c836125d6565b915061395a82613919565b602082019050919050565b6000602082019050818103600083015261397e81613942565b905091905056fea264697066735822122094d234964c5dff8b66588614e236f6c4c0e640d371073f528b2fab3c422f857c64736f6c634300080a0033",
  "linkReferences": {},
  "deployedLinkReferences": {}
}